:020000040000FA
:0600000002123A02079310
:03002B00020F249D
:03003300020EFEBC
:030053000206E2C0
:1000830002072F0101050301BE17BE17BE17BE17D6
:100093007A167416BE17E72300000000AB24000095
:1000A30000000C0000000C000102020AE803D00764
:1000B3000612FF0101005609000000A709E80364C6
:1000C300006400B8010202000800000501070105F1
:1000D3001E02051E0A0A03B80B02803E0102033208
:1000E30000010021020A1401E03031323334353685
:1000F30037383941424344454600286E756C6C20BD
:10010300706F696E7465722900303132333435365D
:10011300373839616263646566003F3F3F00000022
:10012300807F0000803FF9021550B743BA510000A9
:10013300204100E7DB2E0000A04012125960461256
:10014300124A603DE9687008F618F618F618F622A8
:10015300748067F7120171090909748067F7221225
:10016300124A601D1212597005191919801A1211B9
:1001730026701F12113AC37003E667331919194029
:10018300071818182208080874FFF618F618F61846
:10019300F62212113A60171212E7702192F012122E
:1001A300F07019501720F014080808090909E7F638
:1001B3001819E7F61819E7F61819E7F6221212F0DC
:1001C30060E6E869701F0808E62480F608E436F65E
:1001D30018547FB47F0CE654806007F6E418F618D1
:1001E300F622181822E9C6CC08C6CD08C6CE08C622
:1001F300CFC0E0E8C0E0EAC0E0EBC0E009E9F809FD
:10020300E7FA09E7FBE6F918E6F8C3EC98ED99EE8F
:100213009AEBC2E7F5F0EFC2E795F0500E600CEBF6
:10022300CFFBEACEFAE9CDF9E8CCF8EAA2E7D2E7C8
:10023300FAEB33FB13F5F0EEA2E7D2E7FEEF33FF61
:10024300C5F013A2E730E601B313C5F0C3C0E0C0A5
:10025300F07F00C39BFB605E9418600F401D146029
:100263001AD0E023F9D0E0F80203438AF0E94860AA
:1002730003D2F0E4AFF0FAF9F8803BEB30E40D89F8
:10028300F0EA6003D2F0E4AFF0F9CAF8EB30E30D23
:1002930088F0EF6002D2F0AFF0E4CAC9F8EB54077C
:1002A3006014FBC3EA13FAE913F9E813F8EF1350E8
:1002B30002D2E0FFDBEDD0E0C0E030E739C3E49FDA
:1002C300FFF5F0EC98FC42F0ED99FD42F0EE9AFE5A
:1002D30042F0D0E0F9D0E0F8E5F0607AE923F9EEF6
:1002E30020E742D8028067C3EF33FFEC33FCED33E2
:1002F300FDEE33FE80EAEC28FCED39FDEE3AFED04C
:10030300E023F9D0E0F84002801BC3EE13FEED13A7
:10031300FDEC13FCEF135002D2E0FF08B800067F98
:100323007F74FF802EEF3350178CF020F0026010A3
:100333000CBC000C0DBD00080EBE000408E860DF15
:10034300E933E813FFEE2313FE4F4D4C8008E954C5
:1003530080FFE4FEFDFCEE33EF33F47004FCFD7E1E
:1003630080D0E0FBD0E0FAD0E0F8D0E0CFC618CEE2
:10037300C618CDC618CCC6F92212124A7004181832
:100383001822121259700D74FFF61819F61819F67F
:100393001819F622E7548066F61212F0700F121243
:1003A300E770F014F608F608F608F680D11212E7A3
:1003B300700CF608F608768008E6447F80EC12118C
:1003C3003D700C12112960BFE65480F6E480BB1225
:1003D3001129700519191980A5E869700C763F1861
:1003E300768018F618F6E8F922E6CDC0E018ECC0DE
:1003F300E0E633CD33CDD313F6E719FCE719193310
:10040300CC33C3947F400ECD9D502408E65480F630
:10041300E418F6800FF4043D14501408E6447FF604
:10042300187680E418F618F6D0E0FCD0E0FD22CC74
:10043300D313CCFD18E4C6CBC0E018E4C6CAC0E0B1
:100443000808ED08C633E613F618E433C675F0035F
:10045300C3CA97CA09CB97CB199C40047D08802E49
:10046300BD000302052516B6FF050606081618C3C8
:10047300CA33CACB33CB33CA27CA09CB37CB193CD0
:10048300C37D08803E187D0820E75CC633C6CA33A7
:10049300CACB33CB33DDF1D5F0EB30E77BCA97CA58
:1004A30009CB974ACB199C406F4B7025E620E0217E
:1004B3008066187D08C3CA97CA09CB97CB199CD30A
:1004C300C633C6CA33CACB33CB3350C9DDE7D5F005
:1004D300E1D3E4C636C608C636C608C636C608C65D
:1004E30036C61818188031C3CA97CA09CB97CB19D7
:1004F3009CB34097C633C6CA33CACB33CB33DD3440
:10050300D5F02EC6A2E0C640C8CA27CA09CB371900
:100513004A70BECB3CB480B90808E63308E63360C2
:100523001F181818D0E0FAD0E0FBD0E0FCD0E0FDB3
:1005330022187D08CA27CA09CB37CB193CD3808040
:1005430013F618E4B67F11F618B6FF0EF618C604B4
:1005530070D20808768080CAF618F618F680C500AF
:1005630012124A604F1212596012E7548066F61253
:10057300112670111212E7703B090909F4F618F6F7
:1005830018F618F62212113A70151212F00808081C
:1005930060EAE6447FF618768018E4F618F622122D
:1005A30012F060161212E77012E4F608F608F60865
:1005B300E65480F609090918181822EAC0E0EBC0CE
:1005C300E0ECC0E0EDC0E0E687F0A4FBACF008E6A9
:1005D30087F0A42CFCE435F0FA1809E687F0A42C84
:1005E3004B60027401CA35F0FCE433FB09E687F083
:1005F300D2F7A42CCB35F0FC1908E687F0A42BCC5A
:1006030035F0FBE433FD0819E687F0D2E7A42C4A62
:10061300CB35F0CD3400FC09E687F0D2E7A42DCC2E
:1006230035F0FDE433FA0918E687F0D2F7A42CCDB0
:1006330035F0CA3400FC08E687F0D2E7D2F7A42AE3
:10064300CC35F07A7E20E70B0ACB33CBCD33CDCC40
:1006530033CC33CB3350147004ED30E00ED2F1E4DD
:10066300CD3DCDCC3CCC3B5005DA05C2F1EB547FFC
:10067300C63308E63392F0FBE73309E733C39A50F6
:100683002D2B70190C0D4C4D70151806E608C3334D
:10069300700D20F10AA2F013F6E418800B4024E455
:1006A300F630F002768018F618F618F68024D33B5D
:1006B30014501074FFA2F013F6187680E418F6189D
:1006C300F6800FA2F013F618E63303F618ECF618CB
:1006D300EDF6D0E0FDD0E0FCD0E0FBD0E0FA22C0A4
:1006E300E074F2120AB2A2AFE433FED2AFA9A7A814
:1006F300A1E859541060081219F875A1EF8023E896
:10070300A2E092F0E9A2E082F05017906198E0F83D
:100713009004B7E0C398A2D265D0335002E8F075D5
:10072300A1FEEEA2E092AF7F01020B11C0E074F2D2
:10073300120AB2A2AFE433FED2AF9061A4E0F8751F
:100743009B00E59158540860087591F7121A3A8096
:1007530023E59158541060087591EF1221D8801445
:10076300E591A2E092F0E8A2E082F05007E0C2E057
:10077300F0121B789061A3E0F8E5E9585404600E89
:10078300121B4E75E9FB906193E0A2E640F2809262
:10079300C0E074F2120AB2A2AFE433FED2AF9061AA
:1007A300A5E0F8E5BF585404600675BFFB121B9023
:1007B300020725C3E498F8E499F91207F78026C3E2
:1007C300E49AFAE49BFBE920E7E91207F7E498F8D7
:1007D300E499F922C3E498F8E499F91207F7E49845
:1007E300F8E499F9C3E49AFAE49BFB22EB20E7CF00
:1007F300E920E7E0B90010BB0008E88AF084F8AA12
:10080300F022E4FBC8FA22EB70227B10C833C8C97C
:1008130033C9335007C39AC3DBF280069A50012AC7
:10082300DBEAC833F4C8C933F4C9FA2275F008E423
:10083300C833C8C933C933C99AC99B5004C92AC923
:100843003BD5F0ECFBC833F4C8E4C9FA2212089094
:1008530020F01430E72B74FFFCFBFA747F8022E452
:10086300FCFBFA7480801AB48008BC00F2BB00EF72
:10087300800F50EBF9E4C39AFAE49BFBE49CFCE49D
:1008830099C6CC18C6CB18C6CA18C6F922E4C9C67D
:1008930008CAC608CBC6D3330308CCC63392F0C309
:1008A300947F402E94184019C9B90704CACBCC22AF
:1008B3005025C309CA33CACB33CBCC33CC33D9F499
:1008C30022F4600DC9CCC313CB13CBCA13CAD9F618
:1008D300CC22E4FCFBFA2214FCFBFA22080808EA07
:1008E300C0E0EBC0E086F0E7A4FA180986F0E7A4BD
:1008F3002AFA180986F0E7A42AFA180986F0E7A469
:100903002AFA1986F0E7A4FBE5F02AFA190886F01B
:10091300E7A42BFBE5F03AFA190886F0E7A42BFBD2
:10092300E5F03AFA18180986F0E7A4C5F02BFBE4C2
:100933003AFA1908E7C5F0C6A426F6E5F03BFBE44E
:100943003AFA1886F0E7A4F6E5F00826F6E43B0841
:10095300F6E43A08F6D0E0FBD0E0FA22080808E60D
:1009630030E71112114E120977080808C64480C6F1
:1009730018181822181818E9799EC608CAC608CB91
:10098300C608CCC6C370207996CACBCC7019798EB1
:10099300CBCC70137986CC700EF9802ACA33CACBBC
:1009A30033CBCC33CC331930E7F2CCCBCA3350142E
:1009B3007004EA30E00DE4CA3ACACB3BCBCC3CCC62
:1009C300500209C3E913C6CC182313C6CB18C6CAF1
:1009D30018C6F922E4CFC0E0E4CEC0E0E4CDC0E025
:1009E300E4CCC0E075F020E626F608E633F608E628
:1009F30033F608E633F6181818EC33FCED33FDEE46
:100A030033FEEF33FFC3EC9709ED9709EE9709EF38
:100A130097191919400FFFEC97FC09ED97FD09EEA3
:100A230097FE191906D5F0BFECF709EDF709EEF7B4
:100A330009EFF7191919D0E0FCD0E0FDD0E0FED0A2
:100A4300E0FF222518C582C0E0E51934FFC583C045
:100A5300E0E518C3958224F810AF088583198582D1
:100A6300188008858319858218D2AFCEF0A3E520BC
:100A7300F0A37808E608F0A3DEFAEFF0A3E58124FB
:100A8300FAF8E608F0A3E608F0A3E608F0A30808DE
:100A9300E608F0A3E608F0A315811581D0E0FED0A7
:100AA300E0F8158115811581E8C0E0EEC0E022C0B1
:100AB300D02518C582C0E0E51934FFC583C0E0E541
:100AC30018C3958224F310AF088583198582188093
:100AD30008858319858218D2AFC8F0A3E9F0A3EA89
:100AE300F0A3EBF0A37908E709F0A3D8FAECF0A39D
:100AF300EDF0A3EEF0A3EFF0A3D0E0F0A3D0E0F08D
:100B0300A3D0E0F0A3E520F0A3E5F0F0A32285193C
:100B130083851882E0C0E0A3E0F9A3E0FAA3E0FB39
:100B2300A37808E0F608A3DFFAE0FCA3E0FDA3E066
:100B3300FEA3E0FFA3E0C0E0A3E0C0E0A3E0F5D0A4
:100B4300A3E0F520A3E0A3F5F010AF088583198592
:100B530082188008858319858218D2AFD082D0830A
:100B6300D0E0F8D0E0321212D2B90003020BA8E4AD
:100B7300900301781B79088002F0A3D8FCD9FA7A94
:100B83001B7B0A90008678B879018015E493A3ADA6
:100B930082AE838A828B83F0A3AA82AB838D828EFB
:100BA30083D8E9D9E775822D7583E87402120FEAB9
:100BB30075824A7583227400120FEAE47375F0108C
:100BC3008E1A8F1B85821F85831E85188285198344
:100BD300E0CEA3E0CF851F82851E83EBC9EAC8ED73
:100BE300CBECCAC3E833C8E933C9EA33CAEB33CB26
:100BF300C3EA9EF51DEB9FF51CB35004AB1CAA1D65
:100C0300EC33CCED33CDD5F0DAAE1AAF1B22121292
:100C13004A601C12125960171212F070071212E781
:100C23007001D322C0D01212E77006D0D0B322C312
:100C33002233D0D0501430E0F6C3E7960809E79684
:100C43000809E7960809E796B32220E0D5E6970856
:100C530009E6970809E6970809E697B32212124AAC
:100C6300601B12125960161212F070071212E7601D
:100C73000CB322C0D01212E77005D0D022C32233A6
:100C8300D0D0501330E0EBC3E7960809E796080984
:100C9300E7960809E7962220E0E4E6970809E69735
:100CA3000809E6970809E69722D083D082ECC0E0D2
:100CB300EDC0E0E493A3FCE493A3FDED4C600D12BF
:100CC3000D84EC24FFFCED34FFFD80EFE493A3FCE3
:100CD300E493A3FDED4C600D120E83EC24FFFCEDB9
:100CE30034FFFD80EFD0E0FDD0E0FCE493A3C0E04F
:100CF300E493C0E022D083D082E9C0E0E493A3C3AD
:100D030086F0C5F095F0F908E493A386F0C5F09555
:100D1300F0700BE493A3C3994005E9048002A3E4B4
:100D230075F002A42582F582E5F03583F583D0E0E2
:100D3300F9E493A3C0E0E493C0E022851983851806
:100D430082E0A3FEE0A3F5207808E0A3F608DFFA2B
:100D5300E0A3FFE0A3C0E0E0A3C0E0E0A3C0E0E0C5
:100D6300A3C0E0E0A3C0E010AF0885821885831913
:100D73008008858218858319D2AFD083D082020F71
:100D8300F0C0E0C3E49396087401939618400FE40F
:100D93009366700808740193661870007019A3A312
:100DA300C3E49396087401939618A3A3400DD0E06F
:100DB300D0E0D0E0020CE8A3A3A3A3A3A3D0E02236
:100DC300D083D082C5F0E493A3C5F0C395F0F5F0CA
:100DD300E493A3C395F04005E5F0048001E475F0C6
:100DE30002A42582F582E5F03583F583E493A3C05D
:100DF300E0E493C0E0227404800474028000CCC059
:100E0300E0EDC0E0E518C39CCCAD1950011D10AF57
:100E1300068C188D1980068C188D19D2AF120F6CA1
:100E2300D0E0FDD0E0FC2274028000CCC0E0EDC035
:100E3300E0E518C39CCCAD1950011D10AF068C180A
:100E43008D1980068C188D19D2AF120F4AD0E0FD90
:100E5300D0E0FC2212124A602512125960201212AD
:100E6300F070030212E7080808E76670101819E724
:100E730066700A1819E76670041819E76622F422E7
:100E8300C0E0C0F088F0E4936670080874019366CC
:100E9300187000A8F0A3A3700BD0F0D0E0D0E0D07E
:100EA300E0020CE8A3A3D0F0D0E022D083D082CC20
:100EB300C0E0E493A36006120F8D1470FAE493A3C9
:100EC30060061210BC1470FAD0E0FCE493A3C0E0F7
:100ED300E493C0E022C008C3E096F50808A3E096B7
:100EE300420808A3E096420808A3E0964208A2D26B
:100EF30065D033E5087001D3D00822C0E074F21244
:100F03000AB2A2AFE433FED2AFE58BA2E0500312E4
:100F13001950758B00C2E8EEA2E092AF7F01020B7D
:100F230011C0E0C0D0E8C0E0E9C0E0A9A8D2AFC2D8
:100F3300C7E9A2E7E433F8E9A2E792AFD0E0F9D03A
:100F4300E0F8D0D0D0E032CAC0E0E493A3C582CCAD
:100F5300C582C583CDC583F0A3C582CCC582C583B5
:100F6300CDC583DAE5D0E0CA22CAC0E0E0A3C582DA
:100F7300CCC582C583CDC583F0A3C582CCC582C54C
:100F830083CDC583DAE6D0E0CA22C0E0E493A3D3DD
:100F93009C5010E493A3C39C400AD0E0D0E0D0E07F
:100FA300020ECBA3A3A3D0E022C008C3E096F508AA
:100FB30008A3E096420808A3E096420808A3E09637
:100FC30045087001D3D0082270090808082260166A
:100FD300181818C6C333C608C633C608C633C608AE
:100FE300C633C6D5E0EA22C09FF59FE473D09F22A3
:100FF300D083D082C09FE493C0E0740193C0E074B7
:101003000293F59F227404800A740380067402809D
:10101300027401C0E0F404121023D0E012129522EE
:101023002518F58210AF08F518400C15198008F53E
:101033001840021519D2AF8519832200C0D0251894
:1010430010AF08F518500C05198008F51850020563
:1010530019D2AFD0D022BB0102E722C082C083895C
:10106300828A83BB0003E08002E493D083D0822290
:101073006016080808C6C313C618C613C618C613D5
:10108300C618C613C6D5E0EA222518F8E43519F9BF
:10109300222518FAE43519FB222518FCE43519FD3D
:1010A30022C3E0C696F608A3E0C696F608A3E0C6F8
:1010B30096F608A3E0C696F622C0E0E493A36C700C
:1010C30009D0E0D0E0D0E0020ECBA3A3D0E02225EC
:1010D3001810AF08F518400C15198008F5184002D0
:1010E3001519D2AF22E066701008A3E066700A08F3
:1010F300A3E066700408A3E06622C3E09608A3E0B9
:101103009608A3E09608A3E096A2D265D03322C343
:10111300E096F008A3E096F008A3E096F008A3E0B9
:1011230096F022181818E60846087009E626087093
:1011330005E633F4220822191919E709470970094A
:10114300E727097005E733F4220922181818E4C3C6
:1011530096F608E496F608E496F608E496F622E096
:1011630026F008A3E036F008A3E036F008A3E03643
:10117300F022E026F608A3E036F608A3E036F608E8
:10118300A3E036F622E627F60809E637F60809E66D
:1011930037F60809E637F622700422600D18C6C335
:1011A30033C608C633C6D5E0F41822E657F6080955
:1011B300E657F60809E657F60809E657F622E05619
:1011C300F608A3E056F608A3E056F608A3E056F6A1
:1011D30022E647F60809E647F60809E647F608094E
:1011E300E647F622E056F008A3E056F008A3E056DF
:1011F300F008A3E056F022600D08C6A2E713C61854
:10120300C613C6D5E0F322C6F4C608C6F4C608C69C
:10121300F4C608C6F4C622C3E7960809E796080988
:10122300E7960809E79622C3E09608A3E09608A389
:10123300E09608A3E0962275D000758140751801E9
:1012430075190300020B69E6084608C31346083301
:101253006002E633F422E7094709C3134709336001
:1012630002E733F422600C08C6C313C618C613C6BC
:10127300D5E0F422E6F008A3E6F008A3E6F008A31D
:10128300E6F022E0F608A3E0F608A3E0F608A3E000
:10129300F622CAC0E0E6F0A308DAFAD0E0FA22E0C8
:1012A300FAA3E0FBA3E0FCA3E0FD22EAF0A3EBF04A
:1012B300A3ECF0A3EDF022E0F8A3E0F9A3E0FAA396
:1012C300E0FB22E8F0A3E9F0A3EAF0A3EBF022E5C8
:1012D300C754F84401F5C77901222518F582E4358E
:1012E30019F58322E72719471947194722E62618D4
:1012F300461846184622C2AF75D69F020000221236
:101303000FF3498D01120FF3128E01120FF3738E37
:1013130001120FF3F18E01120FF3468F01120FF337
:101323007B8F01120FF3AD9001120FF3A7910112FE
:101333000FF3039201120FF34C9201120FF36E920B
:1013430001120FF3F19201120FF38B9301120FF3BA
:101353000F9401120FF3209401120FF39C940112C6
:101363000FF3449501120FF39D9501120FF3789635
:1013730001120FF3C19601120FF3FE9601120FF340
:101383009B9801120FF3049A01120FF3209B011291
:101393000FF3469D01120FF3519D01120FF35B9D55
:1013A30001120FF3669D01120FF3709D01120FF3EB
:1013B3007A9D01120FF3859D01120FF3909D011287
:1013C3000FF3B89D01120FF3DC9D01120FF3009E82
:1013D30001120FF3669E01120FF3B69E01120FF373
:1013E300D49E01120FF3609F01120FF39E9F01120F
:1013F3000FF3EC9F01120FF367A001120FF3BDA1CE
:1014030001120FF341A201120FF300A301120FF314
:10141300EDA501120FF317A601120FF34FA7011247
:101423000FF395A701120FF3ECA701120FF3F4A822
:1014330001120FF3BCA901120FF314AA01120FF347
:1014430017AA01120FF3C92600120FF31627001271
:101453000FF3FD2800120FF33B2900120FF3872926
:1014630000120FF3382A00120FF3922A00120FF31F
:10147300C82A00120FF3152B00120FF3302C0012A1
:101483000FF3BC2C00120FF3782D00120FF39C30D6
:1014930000120FF3383100120FF3293200120FF349
:1014A300BC3200120FF3DB3300120FF3FF350012CF
:1014B3000FF3B63600120FF3C03600120FF31837CE
:1014C30000120FF3FA3700120FF39D3800120FF3D7
:1014D300093900120FF3363900120FF3583900128D
:1014E3000FF39F3B00120FF3803C00120FF3D13C2C
:1014F30000120FF34B3D00120FF30C3E00120FF3DB
:10150300413E00120FF38A3E00120FF3BF3E00125A
:101513000FF3133F00120FF36A3F00120FF3DC3F88
:1015230000120FF3454000120FF3BB4000120FF3FC
:10153300FF4100120FF3E74200120FF319440012A8
:101543000FF3724500120FF3244600120FF36047A6
:1015530000120FF3F64700120FF3344800120FF393
:10156300904900120FF3A44900120FF3AE49001281
:101573000FF3DB4900120FF3E74900120FF3054A9B
:1015830000120FF3DA4A00120FF31B4B00120FF392
:10159300254B00120FF3AD4B00120FF3BF4C00129B
:1015A3000FF3AF4D00120FF35D4E00120FF3F14E28
:1015B30000120FF3084F00120FF32C4F00120FF31A
:1015C3004A4F00120FF38E4F00120FF3D84F001241
:1015D3000FF3375000120FF35E5100120FF35952FD
:1015E30000120FF3C55200120FF3895300120FF3C9
:1015F300AF5300120FF38B5400120FF3B7540012C2
:101603000FF3435500120FF3FA5500120FF3295647
:1016130000120FF35E5600120FF3A55600120FF3DC
:10162300365700120FF3BB5700120FF3A0FF01123E
:101633000FF3EBFF01120FF3085900120FF3725966
:1016430000120FF3CC5900120FF31A5A00120FF3C2
:10165300355A00120FF36B5A00120FF38C5A001213
:101663000FF3985A00120FF3165C00120FF3345C59
:1016730000120FF39D5C00120FF3B05C00120FF326
:10168300BE5C00120FF3605D00120FF36A5E00127E
:101693000FF3845F00120FF3F95F00120FF303607F
:1016A30000120FF3706000120FF3876000120FF344
:1016B300C66000120FF3076100120FF336610012C8
:1016C3000FF36C6100120FF38B6100120FF3A9612A
:1016D30000120FF3EA6100120FF3C56200120FF359
:1016E3000B6300120FF3366300120FF398630012BB
:1016F3000FF3CB6300120FF3046400120FF31264B1
:1017030000120FF36A6400120FF3A96400120FF3BF
:10171300E96400120FF32D6500120FF350650012F8
:101723000FF35B6500120FF3796500120FF3426646
:1017330000120FF34C6600120FF38B6600120FF3C7
:10174300A16600120FF3AA6600120FF319670012C5
:101753000FF32D6700120FF33C6800120FF34F686D
:1017630000120FF3646800120FF3156900120FF3F0
:10177300876900120FF34C6A00120FF3576A0012C5
:101783000FF37E6B00120FF39A6B00120FF3F96BDA
:1017930000120FF3376C00120FF3516C00120FF3AA
:1017A300886C00120FF3C86E00120FF33C6F001227
:1017B3000FF3B16F00120FF30D7200120FF31D72CE
:1017C30000120FF3207200120FF32C7200120FF3AA
:1017D300407200120FF3487200120FF37D72001271
:1017E3000FF3417300120FF3B27300120FF3187467
:1017F30000120FF3B47400120FF34D7500120FF3C0
:10180300747500120FF3177600120FF3237600128C
:101813000FF3527600120FF3557600120FF3C576CD
:1018230000120FF3C77700120FF3A77800120FF31C
:10183300327900120FF3577A00120FF30E7B001266
:101843000FF3477B00120FF3787B00120FF3817BBA
:1018530000120FF3BD7B00120FF3977C00120FF3FE
:10186300497D00120FF3DB7D00120FF3987E001207
:101873000FF3177F00120FF3497F00120FF3887FD6
:1018830000120FF3249C02120FF3329C02120FF387
:10189300AD9C02120FF3E59C02120FF3449D02125A
:1018A3000FF3BC9F02120FF3A0A102120FF3CDA4FA
:1018B30002120FF3F9A402120FF324A502120FF37D
:1018C30097A502120FF3C1A502120FF3EBA50212A3
:1018D3000FF317A602120FF35AA602120FF308EA28
:1018E30002120FF36CEB02120FF377F502120FF3F0
:1018F30088F502120FF326F602120FF38CED021293
:101903000FF39AED02120FF34CFA02120FF324F8BD
:1019130002120FF334F802120FF349F802120FF315
:10192300AAF802120FF3B4F202120FF338F3021201
:101933000FF39EF302120FF3A4F102120FF3C6F199
:1019430002120FF32CF202120FF33FF202120FF303
:101953007CF202120FF3EEC602120FF3FCC6021260
:101963000FF375C702120FF338C802120FF3A5CA9B
:1019730002120FF3CDEB02120FF3F0EC02120FF38E
:1019830017ED02120FF344ED02120FF35DED021295
:101993000FF368ED02120FF30CBE02120FF361BED8
:1019A30002120FF35BC002120FF38FC002120FF388
:1019B300B1C002120FF3CAC002120FF3E3C0021246
:1019C3000FF3A28301120FF353C202120FF365E464
:1019D30002120FF397E402120FF3A3E402120FF3C0
:1019E300E1E402120FF317E502120FF34AE50212C4
:1019F3000FF3C9E502120FF3F1E502120FF372D8E8
:101A030002120FF395D802120FF3E0D802120FF36C
:101A1300F2D802120FF30DD902120FF373D9021287
:101A23000FF37FD902120FF3DCD902120FF300DA9E
:101A330002120FF3C6DA02120FF3D3DA02120FF314
:101A43002A8C01120FF3BE7F00120FF3DB7F00120B
:101A53000FF352CB02120FF39BCC02120FF3A9CC5C
:101A630002120FF3BDCC02120FF3DACC02120FF302
:101A7300EFCC02120FF302CD02120FF389CD021243
:101A83000FF313CE02120FF37DCE02120FF38DCE9E
:101A930002120FF3F5F602120FF319F702120FF306
:101AA30041F702120FF369F702120FF312DB02126E
:101AB3000FF339DB02120FF358DB02120FF3CADB09
:101AC30002120FF380DD02120FF399DD02120FF3FE
:101AD300B0DD02120FF3B9DD02120FF3D7DD0212EC
:101AE3000FF3E1DD02120FF3EBDD02120FF3FEDD64
:101AF30002120FF353DE02120FF38CDE02120FF306
:101B0300BADE02120FF30BDF02120FF357DF0212DA
:101B13000FF372DF02120FF37CDF02120FF38DDF7C
:101B230002120FF3D0DF02120FF328F902120FF3A0
:101B3300B9A602120FF3E5A602120FF308A70212C9
:101B43000FF31BA702120FF336A702120FF39DA781
:101B530002120FF3CCA702120FF356AB02120FF3CC
:101B630088AC02120FF3BBAC02120FF323AD0212C7
:101B73000FF31FAE02120FF347AE02120FF35CAE68
:101B830002120FF36CAE02120FF3B0AE02120FF398
:101B9300F2AE02120FF302AF02120FF346EF02127C
:101BA3000FF356EF02120FF37AEF02120FF3A3EFC4
:101BB30002120FF3CDEF02120FF3F1EF02120FF344
:101BC30008F002120FF336F002120FF359F002126B
:101BD3000FF379F902120FF39CCE02120FF3ACCE7E
:101BE30002120FF3C8CF02120FF3FACF02120FF350
:101BF30020D002120FF348D002120FF35AD0021270
:101C03000FF396D002120FF3FCD002120FF338D168
:101C130002120FF37DD102120FF3AAD102120FF3B6
:101C2300CBD102120FF326E202120FF337E30212B3
:101C33000FF33AE302120FF33DE302120FF380E3D3
:101C430002120FF3B2E302120FF3E4E302120FF3F3
:101C5300E7E302120FF3EAE302120FF3B7F3021200
:101C63000FF3C9F302120FF3A8F402120FF3ABF44C
:101C730002120FF340F602120FF376F602120FF37D
:101C830092F602120FF3D4F602120FF3E4F60212E5
:101C93000FF35DB702120FF3AEB702120FF333B8AF
:101CA30002120FF352B802120FF32AB902120FF302
:101CB30033B902120FF384B902120FF3ADB9021252
:101CC3000FF303BA02120FF382BA02120FF3B9BA77
:101CD30002120FF304BB02120FF370BB02120FF3D5
:101CE300E6BB02120FF343BC02120FF386BC0212CF
:101CF3000FF3C1BC02120FF3D3BC02120FF3E5BC06
:101D030002120FF304BD02120FF30DBD02120FF303
:101D1300D2BD02120FF3AEF402120FF3DBDF021295
:101D23000FF311E002120FF360E002120FF3C3E1AD
:101D330002120FF3F0CC01120FF332CE01120FF3A4
:101D430069CE01120FF324D001120FF355D0011203
:101D53000FF3F0D201120FF330D301120FF3BAD401
:101D630001120FF34FD501120FF3ADD501120FF38B
:101D730037D601120FF36FD601120FF3B1D601124A
:101D83000FF32BD801120FF3CAD901120FF320DC82
:101D930001120FF34EDC01120FF377DC01120FF384
:101DA30080DC01120FF3D6DC01120FF368DD0112A0
:101DB3000FF31BE101120FF320FA02120FF31FD2EC
:101DC30002120FF334D202120FF3CFD202120FF327
:101DD3000BD302120FF322D302120FF348D30212D2
:101DE3000FF38DD302120FF3BED302120FF3F6D308
:101DF30002120FF366D502120FF391F002120FF3E2
:101E030003F102120FF341F102120FF382F10212F6
:101E13000FF332AF02120FF381AF02120FF369B166
:101E230002120FF324B202120FF36CB202120FF379
:101E33009DB202120FF327B302120FF331B3021252
:101E43000FF33EB302120FF348B302120FF318B5A8
:101E530002120FF326B602120FF3E7B602120FF3C4
:101E630020B702120FF3D8F101120FF32DF2011272
:101E73000FF3CFF201120FF36AF301120FF3B6F36C
:101E830001120FF3CAF301120FF3A2F501120FF3BC
:101E930012F601120FF349F601120FF3C3F7011201
:101EA3000FF3DAF701120FF31AF801120FF35CF8CC
:101EB30001120FF3B8F801120FF3D4F801120FF364
:101EC30029F901120FF379F901120FF393FA0112B1
:101ED3000FF326FD01120FF3C2FD01120FF3EBFD09
:101EE30001120FF345FE01120FF367FE01120FF308
:101EF3006AFE01120FF36DFE01120FF3EAFE0112E7
:101F03000FF313FF01120FF340FF01120FF368FFEA
:101F130001120FF36BFF01120FF3ADF802120FF36F
:101F2300B9F802120FF3F3F802120FF30080021252
:101F33000FF32B8002120FF3C88002120FF34681B6
:101F430002120FF3C08102120FF3078202120FF382
:101F5300758202120FF30A8302120FF385830212B2
:101F63000FF3C38302120FF3228802120FF3B08917
:101F730002120FF39C8A02120FF39C8B02120FF3CF
:101F8300028C02120FF3188D02120FF34D8E021200
:101F93000FF3148F02120FF3B68F02120FF3289070
:101FA30002120FF3B89002120FF3089102120FF30B
:101FB3004D9202120FF3AC9202120FF30594021228
:101FC3000FF30E9502120FF3889502120FF33A974F
:101FD30002120FF3EC9702120FF3469902120FF35A
:101FE300E69902120FF3CB9A02120FF344FA02128C
:101FF3000FF347FA02120FF34CE602120FF37FE6D8
:1020030002120FF338E702120FF3A0E702120FF3E5
:1020130073D502120FF38FD502120FF3DED502121E
:102023000FF3FAD502120FF32BD602120FF350D689
:1020330002120FF320D702120FF32AD702120FF363
:1020430037D702120FF341D802120FF355D80212F9
:102053000FF35ED802120FF386C202120FF382C689
:1020630002120FF387C602120FF3AFE802120FF347
:10207300A8E101120FF3C1E601120FF3F4F9021202
:102083000FF38EF702120FF3B8F702120FF3BDF935
:1020930002120FF3598301120FF31E8301120FF380
:1020A300FA8201120FF3DF8201120FF3878201120A
:1020B3000FF3E08101120FF35B8101120FF3F8803C
:1020C30001120FF3CA8001120FF3D48B01120FF325
:1020D3004D8B01120FF3B88001120FF3C9CC01121B
:1020E3000FF3F48A01120FF3D48A01120FF3AACC6F
:1020F30001120FF3CECB01120FF32ECB01120FF30C
:10210300EBC901120FF37BC701120FF310C70112C2
:102113000FF3E1C301120FF3ADC301120FF368C351
:1021230001120FF351C301120FF367C201120FF330
:1021330017C201120FF361C001120FF3CEBF0112D8
:102143000FF3CBBF01120FF3EBBE01120FF3B7BEB8
:1021530001120FF3EABD01120FF31EBC01120FF3BC
:10216300C5BB01120FF397BB01120FF37489011260
:102173000FF30A8901120FF3BF8801120FF344888A
:1021830001120FF30D8701120FF3FB8601120FF3F8
:102193002D8601120FF394BB01120FF381BB0112C1
:1021A3000FF343BB01120FF336BB01120FF3798513
:1021B30001120FF32EBA01120FF3B8B901120FF384
:1021C3007DB901120FF321B901120FF3BA84011281
:1021D3000FF3F0B801120FF3E4DA02120FF3CDB5E7
:1021E30001120FF3D3B401120FF35EB401120FF314
:1021F30029B401120FF31DB401120FF37CB30112C2
:102203000FF3BAB201120FF3C0B001120FF338AEDD
:1022130001120FF3F6AD01120FF3BEAC01120FF36F
:1022230071AC01120FF3A4AB01120FF303AB011254
:102233000FF3D9AA01120FF3ED8301120FF39FAA33
:1022430001120FF3BDC10200000080FB8F000100EB
:10225300110A870001007C0A24000200550A2500A8
:102263000200570A26000200590A270002005B0AEF
:10227300280001005D0A290001005E0A84000400B1
:102283005F0A86000100630A2A000100640A2B002A
:102293000100650A2C000100680A2D000800FC09F2
:1022A3002E000100690A2F0001006A0A30000100B4
:1022B3006B0A31000100040A32000100050A3300F1
:1022C3000100060A340001006C0A36000100070A07
:1022D300380001006D0A39000100670A830002001B
:1022E3007A0A63000100100A64000100F90965001D
:1022F3000100660A6D000100790A6E000200FA0906
:10230300430001006E0A440002006F0A4500010009
:10231300710A46000200720A47000800080A4800D2
:102323000100740A49000100760A4A000200770A94
:102333004B000100750A040001007D0AA1000100A1
:10234300800A370001007F0A880001007E0A00002E
:102353000000000000013636010100010201000106
:102363000301000104010606050200000701003411
:102373000801000F090401010D0100FF0E08000010
:1023830017020000190100FF1A0100011B0100FEE2
:102393001C0100081D0200001F01000120010001B3
:1023A300210200002301000F240200002601000186
:1023B30027010008280200FF2A0100072B01024021
:1023C3002C0100002D0100012E0100012F0100FF4F
:1023D30030010B1C310800003A0100083B01000FDB
:1023E3002F01000003007100300160001100700034
:1023F300310220035004800010006100000014002B
:1024030063007300720062004300000013000600C3
:1024130000000000040012000000000000000000A3
:1024230004000400370037003C02440000000000B1
:102433000000000065000000350081000000050079
:1024430000008300000003027102300160021102E8
:1024530070020102020202028002100261023A00CB
:10246300410063027302720262024302000213021A
:1024730038000002000204021202000200020002FD
:10248300000204020402370037003C024402000247
:1024930039000002000265020002350281020002D7
:1024A3000502820283020002010371030103010397
:1024B30001030103010322030203010310030003C9
:1024C30000030003000300030003000342030003AF
:1024D3002403060300030003040312032503230359
:1024E300250323030403040300030003000344033D
:1024F3000003000323030003650321003503810365
:10250300000305030003000300030101710101013E
:1025130001011101010131010101010180011001DA
:1025230061013B0014006301730172016201430105
:102533000001130106013D013500040112010001F0
:1025430000010001000104010401330133013C01D6
:10255300440132013600000100016501000135002C
:1025630081010001050182018301000136000100A0
:10257300060000000F000000000000000000000043
:10258300000003FFFF00000403FFFF0000FFFF0F35
:10259300F4010005C4040320000100000B00000047
:1025A300000000000003010F0000B61F1300741F9A
:1025B3000100B61F0200441F03004A1F0400501FFE
:1025C3000500561F0600621FFFFF0000D416041704
:1025D300DA16E016FE16F216EC160A17101716177F
:1025E3002217E616CE16C81603EAF5E5D5D5C5B506
:1025F300A595958585757565655555454535352588
:10260300251515050ACA1402941405A614079A146D
:102613000C76140D8814FF000000160F00000B1534
:102623000B020002220F32000006BE17D017D61786
:102633009E16DC179816A4161E183C184218241868
:1026430030182A180C0E020B040B0A0708000F306F
:102653003016181920231A1C1E30000119161816DB
:10266300161523030000034948424D181725050298
:1026730000383C3E363B3B352B432C303017181982
:1026830021301B1D1F30F8161C17361828172E175C
:102693001218E217E817F417EE17020402010101FA
:1026A3000109020005150D0910080400BE040A28DB
:1026B300000E000400E80315000A030908FF1E1EAC
:1026C30008040C0F040574F7120A46E99003BBF0E3
:1026D300E4900370F0121C5C9003C0E4F0A3F0904C
:1026E30003BCF0A3F01215F6121C6290033FE4F052
:1026F300A3F09003D2E07002A3E060099003D2122A
:102703004B3B120BBE9026C6E493FA790212204685
:10271300023FBC74F2120A46EAFEEBFF74805FF9D3
:10272300E47001E960679003BBE0F9121CC28A08F8
:102733008B09EA7001EB604C7C0080010CEC75F0B6
:1027430003A4A9F02407F582E93426F583E493640E
:10275300FF602AE493FA8508828B83E06A70DDAA1E
:1027630008EC75F003A42408F582E93426F583E424
:1027730093C0E0740193F583D082120BBEAA08AB19
:1027830009121CB6EEFA74806FFB0228F074205F06
:10279300F9E47001E9601D1215248A088B09EA70B7
:1027A30001EB600A121488AA08AB09121CB6EEFAF0
:1027B300742080D4EEA2E0501A900375E0640F7089
:1027C3000B7900121452E960031228F374016EFAB4
:1027D300EF80B6542070030228BC750A00123DFE38
:1027E3007001EB70107C027D007A207B009003BBAC
:1027F300E0F9121DDC7C0079047A007B00121500DD
:102803008A088B0980187401850882850983A3A32C
:10281300A3A3A3A3A3A3A3F0850C08850D09E5082F
:102823007002E50960717C007904AA08AB091215EE
:10283300008A0C8B0D750A01E5082404F8E50912DA
:102843003B7D24FFF0A3E034FF1257B47002A3E0F2
:1028530070C6850882850983A3A3A3A3A3A3A3A307
:10286300A3A3E06401709F850882850983A3A3A3C2
:10287300A3A3A3E05404708E74068508828509839C
:10288300A3A3A3A3A3A3A3A3A3F07AB785088285D5
:102893000983122A2D80811214D07C0079017A00D9
:1028A3007B00121500EA7001EB7009E50A70057AE6
:1028B30020124ACF74200227D174025FF9E4700119
:1028C300E9600A1215F0EEFA740202278B74045FB2
:1028D300F9E47001E96012124C4212461E790112AA
:1028E300321FEEFA740402278B7A007B00023D4606
:1028F300900A5512313212146A22C082C08374EADC
:102903001210D2851882851983AA82AB83794B1260
:10291300201C74081212DD7402F074091212DDAA6D
:1029230082AB83795012201C74131212DD124FB53F
:1029330012203A74160249CB74F7120A4674E11254
:1029430010D2EAFEEBFFEE7001EF6033851882854B
:102953001983AC82AD8312154874061212DDE06050
:102963001E74171212DDE0FD74011212DDE0FCEE9D
:10297300FAEFFB79001220EEE9600479A480027972
:1029830000023FB774F6120A46EAFEEBFF8E828F0F
:1029930083A3A3A3A3A3A3E05440601B124B37124A
:1029A3002CAE60067AFF7BFF801A8E828F83123FE4
:1029B30098FAA3E0FB800312156C74FE6A7003742B
:1029C300FF6B6043124B37124B151215C0E98E8211
:1029D3008F836006122A1BE48005122A1B7401F000
:1029E3007C587D148E828F8312523E122040E9F56B
:1029F300087017EE7001EF60097901EEFAEFFB1230
:102A030014DCA908024B327508CDAA088E828F8385
:102A1300122A2DE960DD80EAE0240DF8A3E0122AF2
:102A230025223400F98882898322E0240C124ED9AE
:102A3300F91214642274F6120A46E9FEEAFF7A0FC9
:102A43007B00121CB0EA7001EB6019740C8A828B54
:102A530083F0EEA3A3F0EF8A828B83A3F0124B6F74
:102A630079008028EEF91215068A088B09A808A9AF
:102A730009E87001E9601374068882898312568518
:102A8300E0F912141CEEF91214E27910024B32C071
:102A930082C083900375E0640F7016EA7001EB60E7
:102AA30010900370E064086005E064047003122A68
:102AB300B70242E0EAFCEBFD7A017B009003BBE046
:102AC300F9121DD622C082C0837900EA241DF58243
:102AD300EB123F95120EAE010304E82A0207E82A1F
:102AE3000AE82AE92A090242E08E828F83A3A3A37C
:102AF300A3A3A3A3A3A3122CB26402228E828F8367
:102B0300A3A3A3A3A3A3A3A3A31242D7900361E008
:102B1300682274F4120A4674FD1210D28A088B09D3
:102B23008A828B83A3A3E0F91215068A0A8B0BAE64
:102B33000AAF0BEE7001EF7003022C1A8508828531
:102B43000983A3E064F16030850882850983A3E0EB
:102B530064CD6024850882850983A3E0641A601824
:102B6300850882850983A3E064E9600C8508828572
:102B73000983A3E064E1700879001214DCE970684A
:102B8300850882850983A3E0C0E074021212DDD0B8
:102B9300E01246021252BFEE240B123075AA82AB2A
:102BA30083700512138680031215A874021212DDB6
:102BB300E064E970338E828F83122C26750A0178C4
:102BC3000A121014750AE9780A121014E508240C85
:102BD300F582E5091235AD1235BBFCA3E0FD8A820F
:102BE3008B831235DE12103E8E828F83A3A3A3A3A1
:102BF300A3A3A3A3A3E06402701074068E828F8341
:102C0300A3A3A3A3A3A3A3A3A3F0850882850983F6
:102C1300A3A3E0F91214E21214D0900A591228F671
:102C23000236EBE0F8A3E0F9E8FAE9FB2274F712C5
:102C33000A46EAFEEBFF750800122AEC70037508DA
:102C430001122AFF7003A3E0697006E508D2E1F5DB
:102C530008E50860158E828F83A3A3E07006E5085C
:102C6300D2E58004E508D2E6F508122CA1640170D0
:102C730006E508D2E0F5088E828F83A3A3E0600DFA
:102C8300122C9564016006E508C2E0F508A9080264
:102C93003FBC124550123FB2F91215AEE9228E82A3
:102CA3008F83A3A3A3A3A3A3A3A3A3122CB222E062
:102CB300FAA3E0FB1215C0E922C082C08379018A1E
:102CC300828B83A3A3E0C394024001198A828B837E
:102CD300A3A3A3A3E0C39402400279008A828B8357
:102CE300A3A3A3A3A3A3A3A3A3E064F87004A3E0F3
:102CF30064FF60488A828B83A3A3A3A3A3A3A3A394
:102D0300A3E064F97004A3E064FF60308A828B83DC
:102D1300A3A3A3A3A3A3A3A3A3E064FA7004A3E0C0
:102D230064FF60188A828B83A3A3A3A3A3A3A3A393
:102D3300A3E064FB7004A3E064FF700279008A825D
:102D43008B83A3A3A3E0FC90035EE06C6002790095
:102D53009026C2E493C394805018E493C333C0E035
:102D6300EA2411F582EB1235B7FAD0E0C39A500288
:102D730079000242E074EC120A4674DE1210D2EAC1
:102D8300FEEBFF8E828F83A3A3A3A3E06010900AC0
:102D930057E07002A3E06006900A571228F6740306
:102DA3001212DDAC82AD838E828F83A3A3A3124B59
:102DB30093125242E9600F74031212DDAA82AB83AD
:102DC300121482E970087901121C6E023070EE242D
:102DD3001B1242BD74101212DD12461E7409121228
:102DE300DDE06021741A1212DDE0FD74041212DDBD
:102DF300E0FC8E828F8312523C79011220EEE9604F
:102E030004790280C374031212DDAA82AB83121405
:102E13007CE9F50A74091212DDE0702A900358E088
:102E230060247422550A6422601C7442550A644269
:102E330070CF74201212DD123086600A74201212D1
:102E4300DD12307F70BBE9A2E6501274031212DD6B
:102E5300AA82AB83121470E97003022DC9EE242CED
:102E63001235AA1233D57003A3E069701F750800E9
:102E730078081210147808121014EE242EF582EF3D
:102E83001240A812308C1235DE12103E7409121251
:102E9300DDE07003022F5112308C12523E121614D1
:102EA3008A088B09EA7001EB7003022FE87404129D
:102EB30012DDE0F88E828F83A3A3E028F8A3E03429
:102EC30000F9740D28F582E439F583E0FA85088268
:102ED3008B83A3A3A3E06A6020EA8508828B83A384
:102EE300A3A3F090809C780C1212868508828B83B2
:102EF300A3A3A3A3780C1212777904E91212DD12AB
:102F0300521B2AFCA3E034008C82F583A3AA82AB74
:102F130083121CA48A0C8B0D8C0E8D0F8508828561
:102F23000983A3A3A3A378101212867810790C1235
:102F3300121A50030230709080A0780C121175851C
:102F43000882850983A3A3A3A3780C1212779003A5
:102F530070E064046008E064096003023070E50A0D
:102F6300A2E54003023028EE242E123075F0EE2441
:102F73002F1235B4C0E074011212DDD0E0F0EE245C
:102F8300301235B4C0E074021212DDD0E0F07414D4
:102F93001212DDE064017027740E1212DD1242C3B7
:102FA300EE24121235B4687003A3E0697011740C37
:102FB3001212DD122AF9700774141212DDE4F0EE16
:102FC30024241235AA120DF974041212DDAC82AD59
:102FD3008374071212DDAA82AB8312138C7404125A
:102FE300103E0230709003B5E064016003022F517C
:102FF30074201212DD1230867009E50AA2E650032E
:10300300022F5174101212DDE064FF7004A3E06418
:10301300FF605AEEFCEFFD74031212DDAA82AB834C
:1030230012148E8048A2E6504474201212DD124E10
:10303300CF701A741A1212DDE06402703074031236
:1030430012DDAA82AB83790012159C8020742012B2
:1030530012DD12307F7016741A1212DDE0640470F0
:103063000C74031212DDAA82AB831215967422022A
:10307300513E124C6185188285198322124B41E01F
:10308300640722123FB2640622EE242A1245531229
:103093005253EE24121245532274F4120A46EAFEE6
:1030A300EBFF8C088D09900A05E0600F122AFF7070
:1030B30003A3E06970051213FE80547900125231A4
:1030C3001214288A828B83E5827002E5836038A319
:1030D300A3A3A3A3A3E05418602DE508241BF58242
:1030E300E5091235AD120DFD1236F51235AD120D8F
:1030F300FDEE2418F582EF1240A812311512143A8E
:10310300740412103E80087900123115121404025F
:1031130036F08E828F83A3A3A3A3A3A3A3A3A31297
:103123005253EE125446EF12312E223400F583E04F
:10313300FAA3E0FB2274F7120A4674F71210D2EADC
:10314300FEEBFF900370E06403600DE06401600830
:10315300E06409600302321A8E828F83A3E0600366
:103163000231F67C007D007A027B00121C68EE249B
:1031730002FAEF123B841242C390036112461E7996
:1031830053122022790012321F900370E064096009
:103193000990036E12523E12160E7401124B6274A2
:1031A30004900370F074011212DDAA82AB83794A92
:1031B30012201C74011212DDAC82AD837A667B038C
:1031C300121E0C90036112524F7A037B00121C688B
:1031D30090036412524F7A047B00121C6890035BC5
:1031E300E0A2E35004D2F08002C2F0124B4812284E
:1031F300F380218E828F83A3AE82AF83FC7D007A1E
:10320300037B10121C688E828F83E0F912321FE455
:10321300900370F01214B87409023FB990036E1250
:10322300313212139E22C082C08390033FE07002AA
:10323300A3E07041900370E0120EAE0003014B3225
:10324300055A320669327832900347E07002A3E0F0
:1032530060649003478059900343E07002A3E060E9
:1032630055900343804A900345E07002A3E0604613
:10327300900345803B90033FE07002A3E06005129A
:1032830035CC700C8A828B83A3E0F91213928026CB
:10329300900340124C3BA3A3A3E0640270051215F4
:1032A300E480139003D6E07002A3E060099003D694
:1032B300124B3B120BBE0242E074F4120A4674FB3B
:1032C3001210D28A088B097A0F7B00121CB08A0A6B
:1032D3008B0BAE0AAF0BEE7001EF70030233CA74AF
:1032E300028E828F83124FB6795012201C8508827A
:1032F300850983A3E060030233B390036EE064FFA8
:103303007004A3E064FF603590036EE064FE700414
:10331300A3E064FF60278518828519831233D57073
:1033230003A3E069601774EA850882850983A31201
:1033330035E77A6E7B0379501220228073851882D9
:1033430085198312541912461E7A617B037953122D
:10335300201C900361124B8D12461E7A647B037905
:103363004B12201C7A637B0379E112201C900375B6
:10337300E0C3940F5022900363E0C0E07402121282
:10338300DDD0E0F074041212DD7401F07402121245
:10339300DDAA82AB83122034750A00780A12101456
:1033A300780A121014900A48E0F91235D512103E2B
:1033B3008508828509831233CFF07403900370F07C
:1033C300EEFAEFFB124B6F74050236EDA3123709C9
:1033D300A32212541DE0682274F5120A4674D8120F
:1033E30010D28A088B098A828B83A3A3A312542C3D
:1033F30074151212DDAC82AD838A828B83A3A3A3DF
:10340300A3A3A3A3A31235BBFAA3E0FB1214BE74B8
:10341300151212DDE0706E850882850983A3A3A3CC
:10342300A3A3A3A3A3E0C3940B405A8E828F83A3C9
:10343300A3A3A3A3A3A3A3E064027049EE240B12E6
:1034430035B464FF703F900370E06402603CE06455
:1034530006603790033FE07002A3E060051235CCAD
:103463006051900370E064086005E06404701674B2
:10347300171212DDE0F9741C1212DDAC82AD831257
:1034830052311214C474280238F990033FE07002D9
:10349300A3E0701F75080078081210147808121042
:1034A30014EE24101235AA12545E123C721235DE49
:1034B30012103E8E828F83124E39125469A3124228
:1034C300C374021212DD12461EEE240D1235B4C06F
:1034D300E074041212DDD0E0F01235A7A3E05480AB
:1034E300F9E47001E96004D2F08002C2F0A2F0E4D2
:1034F30092E0C0E074051212DDD0E0F074191212EC
:10350300DDE0C0E074061212DDD0E0F0741B12128D
:10351300DDE0C0E074071212DDD0E0F07416121281
:10352300DDE0C0E074091212DDD0E0F0741712126E
:10353300DDE0C0E074081212DDD0E0F0EE241012DA
:1035430035B4C0E0740A1212DDD0E0F0741A12121E
:10355300DDE0C0E0740B1212DDD0E0F0742712122C
:10356300DDE0C0E0740C1212DDD0E0F0741C121226
:10357300DDA982AA8389088A09750A0078081210CE
:103583000C7C087D0074101212DDAA82AB831245F5
:103593004012103E851882851983AA82AB831213C9
:1035A30098023488EE240BF582EF12455622EE245E
:1035B30017F582EF124C6422E0F98A828B83A3A36E
:1035C300A3A3A3A3A3A3A3E02290033F123893646E
:1035D300012290036E12525390036412313212157A
:1035E3007E740222F07A617B0379531235F2221240
:1035F30020227A647B03794B1220222274F2120A6E
:103603004674F81210D2EAFEEBFF8C0A8D0B890C7C
:10361300851882851983AC82AD8375838075827B1F
:103623007408120F6CF50DEEFCEFFD8518828519F9
:1036330083AA82AB831257F67003750D019003BC06
:10364300803BEEFCEFFDE508240BFAE5093400129C
:1036530057F5601E850882850983A3A3E0650C7076
:1036630011850882850983E0650A7004A3E0650B70
:103673006038E5082414F582E5091235AD12520AC3
:10368300E5087002E5096022E50D70B685088285BC
:103693000983E0650A7004A3E0650B70D585088291
:1036A300850983A3A3E0650C70C8AA08AB09740855
:1036B300023D43C082C0839003BC0242DD74F71213
:1036C3000A469003BCE0FAA3E0800CEA24141254E7
:1036D30026121D2EEEFAEFFBEA7001EB70ED90035C
:1036E300BCE4F0A3F0023FBC740312103E7F04025B
:1036F3000D3EE5082412F582E50922123709F0A3ED
:10370300AE82AF8322A3E08E828F8322AA08AB0905
:103713007F07020D3E74F1120A46EAFEEBFF890AA7
:103723008C088D098E828F83E08C828D83123DE31A
:10373300AE82AF83E01247EF1237F2C41247EF12A3
:1037430037E5E054038C828D831237F0A2E2E492D2
:10375300E08C828D831237EF131313541F1247EF3C
:103763001237EEA2E7E492E08C828D83A3A3A3A396
:103773001237E58E0C8F0D750E00780C12100C7C31
:10378300087D00E50824071237D912103E1237D0FE
:103793008E0C8F0D780C12100C7C037D00E5082431
:1037A3000F1237D912103EE50AC3940F40148E82CC
:1037B3008F83A3A3A3E0C0E01236F51235ADD0E0AA
:1037C30080071236F51235ADE4F0023713EE240804
:1037D300FEEF3400FF22FAE5093400FB121C927459
:1037E3000322A3A3123DE30EAF8322A3A3A3A3A3A8
:1037F300F08E828F83E02274F0120A4674F912105D
:10380300D2EAFEEBFF890890033FE07002A3E06079
:103813001012388C64027009EEFAEFFB1215DE8089
:103823006390036EE06E7003A3E06F7057740165DD
:103833000860097A827B031257F670487A007B028C
:10384300123E027001EB703C900371780C121286E9
:10385300851882851983780C121277900377E0C05C
:10386300E074041212DDD0E0F074051212DD74016D
:10387300F074061212DD7402124FB6121368E96077
:103883009712136E740702515690033F1238932216
:10389300124E4FA3A3A3A3A3E02274F5120A468AF0
:1038A300088B098A828B83A3AE82AF83E0F912135C
:1038B300B68E828F83E064EB600C85088285098372
:1038C300A3E064E17009E4850882850983A3F0120B
:1038D30028F3750A01780A12101485088285098372
:1038E300A3E0F508780812101479001235D51210E8
:1038F3003E1214D0800312103E7F03020D3EEAF005
:10390300A3EBF00242E074F6120A469003BFE070A4
:103913001F7C0079017A007B00121500EA7001EB2D
:10392300600E8A828B83E07002A3E0600312145E50
:10393300024B32C082C083123DEA401079FF121459
:10394300FAE9FA9026C5E493C39A500479018002F8
:1039530079000242E074F0120A468A088B09890B47
:10396300750C008A828B83A3A3A3A3A3A3A3A3E0C1
:10397300F91215068A0E8B0FAE0EAF0F750A01EE04
:103983007001EF6003023A36850882850983A3A399
:10399300A3A3A3A312524F850882850983A3A3A3DC
:1039A300A3A3A3A312460A12523E1214EE8A0C8B4F
:1039B3000DAE0CAF0DEE7001EF7003023B758E82FE
:1039C3008F83A3A3A3A3E4F0A3F0E508240B123B86
:1039D30081E0C0E01235A7D0E0F01215C6EE240C4A
:1039E300F582EF124B11E508240EF582E509124228
:1039F300C0EE240E124618750C01EE2406F8EF12E1
:103A03003B7D547FF0A3E054FC1257B4540460038D
:103A1300023ABC900A5D1245FB7407780812119BA9
:103A23008E828F83A3A3A3A3A3A3E04508F0A3E0FF
:103A33004509F08E828F83A3A3A3A3A3A3E054809D
:103A4300F508A3E05403F50974077808121268E532
:103A53000B607974028E828F83A3A3A3A31237EE24
:103A6300240D124ED5A2E2500B90035C124B8DA392
:103A7300A312461EE5087003023B43EE2406F8EF4B
:103A83003400F9E8FAE9FB8A828B83E0547FFCA3D4
:103A9300E054FCFD74FF2508F50874FF3400F509B4
:103AA3007407780812119BE5084CF8E5094DF98A6B
:103AB300828B8312461E023B438E828F83A3A3A372
:103AC300A3A3A3E04480F0A3E0023A35E508700520
:103AD300750A00806B8E828F83A3A3A3A3A3A3E0A5
:103AE30054206017121CAA8A08747F5508F8745F63
:103AF300288E828F83A3A3A3A380278E828F83A381
:103B0300A3A3A3A3A3E05410600E121CAA8A0874F3
:103B13000F5508F8740A80D88E828F83A3A3A3A3BA
:103B23007401F0A3E4F074048E828F83A3A3A3A390
:103B3300A3A3A3A3A3123DF97001EB7003124B04DB
:103B43007401650C702F8E828F83A3A3A3A3124FDE
:103B5300CAF9EEFAEFFB1214F4E96019EE240C1221
:103B630035B47002A3E06003123B8CEEFAEFFB1254
:103B73001D2E750A00A90A025159124C7422FAE546
:103B8300093400FB8A828B8322EE240C12455312E4
:103B93003B9622E0FAA3E0FB121D2E2274F4120AD4
:103BA3004674F71210D27E00121506EA7001EB700C
:103BB30003023C6B8A828B83A3A3A3A3A3A3A3A324
:103BC300A3E064066003023C6B8A828B83A3A3A3F6
:103BD300A3A3A3A3E0FF8A828B83124406E0C0E081
:103BE30074081212DDD0E0123FAB124DA012461E34
:103BF30012151874085FF9E47001E9606985188289
:103C030085198312524F7A007B001214E8EA70017F
:103C1300EB705390036E1240AD12204C7C007D007C
:103C23007A007B00802A8E828F83123F9864FF7014
:103C330004A3E064FF602F90036E123C7212523EA5
:103C430012199EE9641A601E7C007D00EEFAEFFBF8
:103C53001214E88A0A8B0BAE0AAF0BEE7001EF70F9
:103C6300C579001220527E01EEF974090236ED1275
:103C73003C7622E0FCA3E0FD8E828F832274F71250
:103C83000A46EA7001EB70059003C080068A828BB6
:103C930083A3A3123EBA7001EB602C8A828B83A3A9
:103CA300A3A3A3A3A3A3E05408F9E47001E960DD8F
:103CB300EC7001ED60158A828B83123F986C700360
:103CC300A3E06D70C880047A007B00023FBC74F2ED
:103CD300120A46EAFEEBFF890A8C088D097A107BEB
:103CE30000121D28EA7001EB603CE48A828B83A3F7
:103CF300A3A3A3A3A3A3A3123D36E50A123F9F12D6
:103D030057268A828B83A3A3A3A3E4F0123D36A391
:103D1300A3F01252BBEA240CF582EB1241F9123DD7
:103D23002BA3A3F0A3F0801BA3123D3022F08A82C1
:103D33008B8322A3123FA3A3A3A3A322A90A7403E1
:103D430012103E7F06020D3E74F4120A46EAFEEBA1
:103D5300FF89088C0A8D0BEE7001EF605C740165BE
:103D630008701479011214FAE9FA9026C3E493C394
:103D73009A500F79118066740465087036123DEA13
:103D830040F18E828F83A3A3A3A3A3A3A3A3A3E53D
:103D930008123DE3A3A3A31244118E828F83A3A32E
:103DA300E4F0A3F09003C0E07002A3E09003C060CE
:103DB3001B800A7402650860C979C1802012502CE7
:103DC3007002A3E088828983A3A370F1EEF0A3EFCE
:103DD300123DF97001EB7003124B0479000236F0C7
:103DE300F08E828F83A32279041214FAE9FA9026C3
:103DF300C8E493C39A22F0123DFE227A207B0090FE
:103E030003BBE0F9121DE8EA22C082C083E9FC7912
:103E1300009003C0801D8A828B83A3A3A3A3A3A3C3
:103E2300A3A3A3E06C600574FF6C7001098A828B05
:103E330083A3A3123EBA7001EB70DB0242E074F776
:103E4300120A46EA7001EB70059003C080068A826D
:103E53008B83A3A3123EBA7001EB60248A828B8307
:103E6300A3A3A3A3A3A3A3A3A3E06970E1EC60149A
:103E73008A828B83E0240D125225A2E240D0800473
:103E83007A007B00023FBCC082C0839003C08006DF
:103E93008A828B83A3A3123EBA7001EB60128A82DB
:103EA3008B83A3A3A3A3A3A3A3A3E06970E28004CA
:103EB3007A007B000242E0123132EA2274F1120AE4
:103EC300468A0A8B0B8C0C8D0D750800750900EA68
:103ED3007001EB60319003C080068E828F83A3A3B1
:103EE300123F0C7001EF601EAC0CAD0DEEFAEFFB50
:103EF300850A82850B83120BBEE9640170DCEEF840
:103F0300EFF98808890902370FE0FEA3E0FFEE22EC
:103F130074F7120A469003C01242C37C007D0080EE
:103F23000DE8FCE9FD88828983A3A31242C3E870EC
:103F330001E96030EA687002EB6970E59003C01232
:103F4300523EE86A7002E96B88828983A3A37008F2
:103F53001242C39003C080091242C38C828D83A393
:103F6300A312461E023FBC74F7120A46EAFEEBFF99
:103F7300EE7001EF6016121512123FC17002A3E03A
:103F83006003123B8CEEFAEFFB121D2E023FBCF5D1
:103F930082EF124556123FB222A3A3A3123FA322DC
:103FA300123D30A3A3A3A322123D30123FB222122B
:103FB3004E54E022741F12103E7F01020D3E8E828A
:103FC3008F83E0241C124ED9123B978E828F83126B
:103FD3003B96EE240C124C6122C082C083EAFCEBB8
:103FE300FDEC7001ED700479058049EC24FBF5824A
:103FF300ED34FFF583E07002A3E0700812403AE06D
:1040030064FF6005121CB680DE9003BBE0C0E012C3
:10401300403AD0E0F09026BCE493F97AC27B0312D5
:104023001CE0E96401700B7A007B20124B087900D5
:10403300800279040242E0EC24FFF582ED34FFF5BF
:10404300832274F4120A46A2AFE492E0F508C2AFE9
:104053009003C2123F0C7001EF603DEE24FBF5822A
:10406300EF34FFF583E07002A3E07A007B20900336
:10407300BB6005124B0B8005E0F9121CEC750A00BE
:10408300750B00780A121010EEFCEFFD7AC27B0369
:10409300121CDA740212103EE508A2E092AFEEFAA7
:1040A300EFFB0236F0124C64F92212525385188248
:1040B300851983AA82AB832274F4120A4674FC1214
:1040C30010D2EAFEEBFF1214D6E960057911024122
:1040D300EE8E828F83122CAC6006EE24121241F610
:1040E300EE24131235B470109026C2E493C0E0EEB0
:1040F30024131235AAD0E0F08E828F83E0A2E7501A
:10410300045403801CEE24141235B4701590034D2F
:10411300E0C0E0EE24141235AAD0E0F090034DE0A5
:1041230004F0EE24111235B4640170169009F9E01D
:10413300600D900358E0700A8E828F83E070031243
:1041430041F38E828F83E064017016EE240B123FDD
:10415300926402700CEE240F1235B44440F0A3E0D5
:10416300F0851882851983AC82AD83EEFAEFFB12DA
:10417300153C8A088B098E828F83A3A312524FEAC0
:104183007001EB60628E828F83E0C0E074011212D3
:10419300DDD0E0F074021212DD1252BF740112126C
:1041A300DD85820A85830B780A121010EE240F1224
:1041B30035AA120DFDEE240E1235B4F50A780A1253
:1041C3001014900361120DFD74071212DDE0F91251
:1041D3001536740712103EE9FE74106E700BAA08B0
:1041E300AB09121D2E80027E10EEF974040236ED27
:1041F300EE2411F582EF124556E4F022C082C0830B
:1042030074DE1210D28A828B83A3A3A3A31242C3A8
:10421300740E1212DDE8F0A3E91242CE740C1212EE
:10422300DD1242C7240DF582EB1235B7C0E0741AD4
:104233001212DDD0E0F0125445EB1242C07420128A
:1042430012DD1242C72415F582EB1235B7C0E074B4
:10425300081212DDD0E0F0EA241CF582EB1242C012
:1042630074121212DD1242C72411F582EB1235B714
:10427300C0E074091212DDD0E0F074FF8518828566
:104283001983F074011212DD74FFF074021212DD4F
:1042930074FFF090809C120DF974041212DDAC824D
:1042A300AD8374071212DDAA82AB8312138C7404DC
:1042B30012103E790074220249CBF582EF12455663
:1042C3001242D722E8F0A3E9F0EA22123D30A3A379
:1042D3001242D722E0F8A3E0F92212523ED083D053
:1042E30082020FF074EC120A4674EE1210D28A1294
:1042F3008B13ECFEEDFF890974261212DD125202B4
:1043030074281212DDE0F50E74291212DD125438EE
:10431300742B1212DDE0F510A3E0F5117508107A85
:104323001E7B00121D2874021212DD124B1574023B
:104333001212DDE07002A3E070030243FF851882CE
:10434300851983AA82AB8379501249D112523E74E4
:10435300021212DD124406A3124B1574101212DD61
:1043630012441174021212DDE0240B122A1E74028D
:10437300F01212DD1244067402F01212DD124B3BEE
:104383001252BF74021212DDE0241B122A1EE50929
:10439300F074021212DDE0240C122A1EE50EF074F2
:1043A300021212DDE0241C122A1EE512F0A3E5130B
:1043B300F074081212DD12514E740A1212DDE50E6A
:1043C300F0851082851183C082C083740D1212DDC3
:1043D300AC82AD83D083D0827403120F6CF9740264
:1043E3001212DDAA82AB831214DCE9640170057535
:1043F3000800800874021212DD123B92A90874129D
:1044030002513E124E4BA3A3A3A3A3A3A322E50AE7
:10441300F0A3E50BF02274F1120A46EAFEEBFF8CDF
:10442300088D0974088E828F83A3124B9DE0600868
:1044330074108E828F83A3F01235B160098E828F40
:1044430083A3E02408F0EE24111235B46005750A45
:104453000E8003750A008E828F83A3E0C0E0EE24F2
:104463000D1235AAD0E0FAE02A250A8C828D83F05A
:10447300EE24111235B4600512474E2AF0850882E6
:10448300850983E0C3947540097508007509000226
:10449300453CE0FA7B001253797001EB700302454F
:1044A3003CEEFAEFFB121542EA8508828509831276
:1044B3004B16EE2402F8124C4C12455BF0EE24042A
:1044C3000808124C4CA3A312455BA3A3F0EE2413DC
:1044D300124546F0EE2414124546A3F0750C08EE7F
:1044E30024161235B46010EE2418125249E508243C
:1044F30008125454750C101235B1600DEE241A12C3
:104503005249E508250C125454125432750E0078A2
:104513000C12100CEE240D1235B4FC7D008E828F2C
:1045230083A3E0F8E50828F8E5093400F9E50A284B
:10453300FAE43912453F12103E02370FFB121C9268
:10454300740322124553124567A3A3A322EE241D2D
:10455300F582EF3400F58322A3A3F088828983A335
:1045630012456722E0850882850983A3A3A32274E9
:10457300F6120A468A828B83E0FC90035E1245FBA7
:104583007402780812119BE5084CFCAD09EA241269
:104593001245F57406780812119BE5084CFCE509F1
:1045A3004DFDEA24111245F57409780812119BE5B3
:1045B300094DFDEA24161245F5740B780812119B78
:1045C300E5094DFDEA24171245F5740C780812111C
:1045D3009BE5094DFD8A828B83A3A3A3A3A3A31207
:1045E30045FB740A780812119BECFAE5094DFB02AE
:1045F3004B32F582EB124556E0F50875090022F0BF
:1046030085188285198322A3E0F9850882850983A9
:1046130022F9EE241DF582EF124556E8F0A3E9F0E6
:104623002274F2120A468A088B09ECFEEDFF750A22
:1046330001E9C394085005790002474B8E828F83AA
:10464300E9123D2C124931E96003750A008508829D
:10465300850983A3A3E0FA85088285098312494A61
:10466300F0A3E9124C8FFA850882850983A3A3A3DB
:10467300A3A3E0F9EAF8EE240B124CABE0C0E0EEA2
:1046830024111235AAD0E0124C84A3A3E0C0E0EEBB
:1046930024121235AAD0E0124982600AE5082408E0
:1046A300F8E50912495E8E828F83A3A3A3A3A3A374
:1046B300A3A3E060218E828F83A3A882A983E0FA5B
:1046C300E5082AFAE5093400FBEE24151235AAEAB7
:1046D3001257B12408F0EE24191241F6EE241B12EE
:1046E30041F61237F2C0E0A3E0FAD0E0C39A5003D8
:1046F30002463A8A0CE508250CF8E5093400F9EE80
:10470300241D12544EA3E91237F3C39AC0E0EE24DA
:10471300171235AAD0E0124B78602BEE2417F8EF6E
:104723003400F9880889098882F583E024F2124C61
:104733006A240EFAA3E03400FB88828983124B15A6
:1047430012474EC39AF0A90A023D46900359E0F975
:104753001220DCE9FA850882850983E02274F412C9
:104763000A468A088B09EA1247E6F0EA1313543F14
:104773001247EFA3A3A3F0EAC413131247E6A3A3BC
:10478300F0E48C828D83A3A3A3A3A3F08A0A8B0BEB
:104793007409780A1212681247D7F0EC2418F582CC
:1047A300ED1241F98A0A8B0B740B780A1212681204
:1047B30047D2F08A0A8B0B740C780A1212681247DC
:1047C300D2A3F0740D7808121268A9080236F01209
:1047D30047D7A322E50A54018C828D83A3A3A3A305
:1047E300A3A32254038C828D83A3A322540F8C8210
:1047F3008D8322C082C08379008A828B83A3A3A383
:10480300A3A3A3E0900358600FE070228A828B83F6
:10481300A3A3E07019098016E060138A828B8312C8
:104823005235900361E06A7003A3E06B70E70242C4
:10483300E074F2120A468A0A8B0B890CECFEEDFF38
:104843008A828B83124931850A82850B83A3A31243
:10485300492812494A12496F124928A3A3A3A3A3C3
:10486300E0F9EAF81235A7E812496FA3A3E0C0E024
:10487300EE24111235AAD0E0124976A3A3A3E0C017
:10488300E0EE24121235AAD0E0124982600AE50A4A
:104893002408F8E50B12495E8E828F83A3A3A3A39A
:1048A300A3A3A3A3E060188E828F83A3124938EEDB
:1048B3002415124618850882850983E02408F0EE42
:1048C300FAEFFB121554E9F50D70558E828F83A311
:1048D300A3A3A3A31233CF7016E0FA8A08E50A252F
:1048E30008F8E50B3400124614E50CC39A8026122F
:1048F3004938740E28F8E439124614900359E0F944
:104903001220DCE9FB850882850983E0FAE50CC304
:104913009A24F2C39BC0E0EE24171235AAD0E0F02C
:10492300A90D023D46E0FA850A82850B83221231E6
:104933003212154E22858208858309E0F8E50A289C
:10494300F8E50B3400F922A3A3A3E0F9EA8E828FE2
:1049530083A3A3A3A3A3A3A3A3A3223400F9EE24B5
:1049630013124CB3123DE3E02408F022F0A3E91242
:10497300497622F0850A82850B83A3A3A3A322F0A1
:1049830074088E828F83A3124B7DA3E022C082C062
:10499300837AC77B0379E212201C7AC77B03024226
:1049A300E0C082C0839003610242DDC082C0837491
:1049B300FE1210D2851882851983AA82AB83794BA4
:1049C3001249D112523E740212103E0242E01220EA
:1049D3001C85188285198322C082C083794A1220DC
:1049E3001C0242E074F6120A469003CFE0FE04F084
:1049F300EEF9121506EA7001EB70EEEE60EBF902C8
:104A03004B3274EE120A46EAFEEBFF8C088D0989DD
:104A13000A74121212DDE0F50C74131212DDE0F5C4
:104A23000D750B00750E00121614EA7001EB70146D
:104A3300E50D7048A90AAC08AD09EEFAEFFB1216B2
:104A43001A024AC8E50A6023EA2402F582EB12350A
:104A5300B7F8850A08E50828F8E4340013E813F0EA
:104A6300700974018A828B83A3A3F0E50D6056E578
:104A73000C7009E48A828B83F0750E017401650D55
:104A8300701FE50C60169003D8E004F0C0E0900AB4
:104A93005EE0FAD0E0C39A4008750B01E49003D8B6
:104AA300F0E50E7004E50B601CE50B6018900364E1
:104AB300E06E7003A3E06F700CEEFAEFFB79011266
:104AC30013B0124ACD7F0A020D3E7A017B00900398
:104AD300BBE0F9121DE222C082C08374016A700137
:104AE300EB70077A01124B068014900A55124B158E
:104AF300EA7001EB6005122AB78003124ACD024225
:104B0300E07A207B009003BBE0F9121CE62234001C
:104B1300F583EAF0A3EBF022C082C083900A570228
:104B23003901C082C083900A5902390112103E7FB5
:104B330002020D3E8E828F83124B3F22E0F8A3E0E8
:104B4300F583888222A2F0E492E0124B5679521246
:104B5300202222851882851983F0AA82AB83221230
:104B63004B56794212202222AA08AB099003BBE0DC
:104B7300F9121CBC22124B7DE022124B8122F08ED3
:104B8300828F83A3A3A3A3A3A322E0F8124B9322B0
:104B9300A3E0F98E828F83A3A322F0EE241612459D
:104BA300532274FEF0A374FFF02274F4120A46EA4F
:104BB300FEEBFF7A007B04124AD1124C4212461ECE
:104BC3007409900370F01215608A088B09AC08AD64
:104BD30009EE24131235AA12523E1257F6640170DD
:104BE300497A0F124C307001EB603F74028A828B5A
:104BF30083124C6AFAA3E0FB8A828B83A3E0FC8ACC
:104C0300828B83A3A3E0FBEC850882850983A3A39E
:104C13001257B1F8A3124C3B124C50124C58FAA342
:104C2300E0FB794A122022124B6B0236F07B001212
:104C33001CB08A088B09EA22124B42A3A3A3229039
:104C430003411242D7900A5922EF122A25E0850820
:104C53008285098322A3F0EE2415124C6122F5828A
:104C6300EF3400F583E022F0EE241DF8EF124C74CC
:104C730022124EE022124C7C223400F5837401F0A0
:104C830022124C8822124C9AA3A3A322124C96A35D
:104C9300A3E022124C9A22F0850882850983A3A3FC
:104CA30022124FBE1215B422124CB3124C88A32207
:104CB300F582EF3400F583E8F0A3E92274F4120AD5
:104CC3004674F31210D28908EAFEEBFF7C0D7D00D7
:104CD3007900851882851983AA82AB83121C9EEE04
:104CE300241D1235AA124B3BA3E0FA741F5A600A23
:104CF3007901121C6E7900024D9AEAA2E5500874FC
:104D03000C1212DD7401F0EAA2E75008740B1212C0
:104D1300DD7401F0EAA2E6740A50081212DD740190
:104D2300F080081212DDE064017005EE24138003A5
:104D3300EE241512524974021212DDAA82AB8312B9
:104D43001E0C1235A7124D9F12461E740A1212DD55
:104D5300E064017033122CA1703B12156C8A0A8B2C
:104D63000BA80AA90BEE240B1235B4687003A3E059
:104D7300697022121560EAFCEBFD74021212DDAABF
:104D830082AB831257F6600D851882851983AA8238
:104D9300AB831213AAA908740D0236EDE0124DA4D9
:104DA30022F8A3E0F98518828519832274F6120A82
:104DB3004674F31210D28A088B09ECFEEDFF7C0DCA
:104DC3007D007900851882851983AA82AB831256E8
:104DD30021A3A3A3A3A3A3A3A3A3124E39124E42B9
:104DE300FAA2E55008740B1212DD7401F0EAA2E78F
:104DF3005008740A1212DD7401F0EAA2E6EE5004C0
:104E030024138002241512524974021212DD124E29
:104E13002BA3A3E0C0E0740C1212DDD0E0124FB656
:104E23001213A4740D024B2FAA82AB83121E0C859E
:104E3300088285098322E0124DA4E8F0A3E922F059
:104E4300124550124E4BE022124E4F22124E54A3E3
:104E530022E0F8A3E0F58388822274F7120A4674ED
:104E6300E11210D2EAFEEBFF8E828F8312388FA2FB
:104E7300E050568E828F83122C288A828B83A3A3C1
:104E8300A3A3A3A3E054FEF0A3E0124EE98A828B0E
:104E930083E0241B124ED5F98A828B83E0241CFA0B
:104EA300A3E0123B8412523E12155AE9701B741D83
:104EB3001212DD124ECF7011851882851983AC82D0
:104EC300AD83EEFAEFFB1215A2023FB7123FB264B5
:104ED3000422124ED922F8A3E0124EE0223400F944
:104EE30088828983E022124602AC82AD8322E9FAEA
:104EF300790074046A600A740A6A600574036A704C
:104F03000109020FF074F6120A4674208A828B8319
:104F1300F07401A3A3F012135CEA7001EB60077451
:104F2300018A828B83F0024B32C082C0837401906A
:104F330003C4F0E9A2E350037403F0E9A2E15004CF
:104F4300E0D2E2F00242E074F6120A4679007C00F5
:104F53008A088B097808120CF8F8FF077D4F7B4FFE
:104F63007B4F7B4F7B4F744F784F7D4F714F0C803E
:104F7300097C0480050C80F67C089003C4E05C6027
:104F830003098003EC600109024B3274F6120A46EE
:104F93008A828B83E07014A3E07002A3E0600C8A22
:104FA300828B8312523D1221B480047A007B00026B
:104FB3004B32E4124FBA22124FBE22F0851882857B
:104FC3001983AA82AB8322123C76A3A3A3A3A3A330
:104FD300A3A3A3E02274F2120A4674FD1210D28A2C
:104FE300088B09ECFEEDFF890B750A01740112129F
:104FF300DD74041254407001EB602B125445EB1224
:1050030042C0740388828983124413EE88828983A1
:10501300A3A3F0EF88828983A3A3123D2B12572603
:10502300121356E9F50A023D3F1242D7888289835B
:10503300A3A3E02274EC120A4674F51210D28A0C70
:105043008B0D890A8C0E8D0F741F1212DDE0F50B88
:1050530074201212DDE0F510A3E0F5117E01EE12CB
:1050630012DD740AF0E97007E50BC333240AF085F7
:105073001882851983AA82AB831215B48A088B0917
:10508300EA7001EB700302513AEA240B12542674BE
:10509300098E828F83125212450B123701AC0EAD6B
:1050A3000FEEFAEFFB121E0C1237D0E50A702D7CBF
:1050B300008023ECC333F8E433F9E51028F8E51155
:1050C30039F9888289831236FE88828983123708E8
:1050D300F0A30EAF830CECC3950B40D7E508241760
:1050E300F582E509124C78121560E508241AF58259
:1050F300E509124B1174031212DDAC82AD83AA0CC5
:10510300AB0D12209AE9601DE5082416F582E50926
:105113001251461212DDA882A983E5082418F582EC
:10512300E50912461B85088285098312514CAA089A
:10513300AB09121356E9FEEEF9740B12103E7F0C05
:10514300020D3E124C7C740322A3A3E50CF0A3E5ED
:105153000DF02212103E7F08020D3E74EE120A4635
:105163008A0C8B0D890E8C088D0974121212DDE0E6
:10517300F50F74131212DD12520290096BE07002E4
:10518300A3E06078E50FC333F8E433F9740E28FA2B
:10519300E439FB121CB08A108B11AE10AF11EE7004
:1051A30001EF605874D48E828F83F012514C8E823B
:1051B3008F83A3A3A3A3E50EF0AC08AD09EE2405EA
:1051C300FAEF125457EE240D1235AAE50FF0850AB3
:1051D30008850B09750A00780812100CE50FC33314
:1051E300FCE433FDEE240EFAEF1237DC12103EEE30
:1051F300FAEFFB90096B124B3B120BBE024AC8E05D
:10520300F50AA3E0F50B22E0F508A3E0F50922F087
:10521300A3E50AC43354E022E0FA8E828F83A3A36A
:10522300E022FEA3E03400FF8E828F83E0228E8291
:105233008F83A3A3A3A3A3A3A3A3A31231322212F5
:10524300313212154822F582EF124556125253227B
:10525300E0FCA3E0FD2274F6120A46EAFEEBFF909F
:1052630003C5801388828983E06E7003A3E06F60B7
:105273003F88828983A3A31252B67001E970E57A4D
:10528300047B00121D288A088B09A808A909E87065
:1052930001E9601C888289831252BF9003C51252B0
:1052A3003E88828983A3A3124B159003C512461E21
:1052B300024B321242D7E8228A828B83EEF0A3EFAD
:1052C300F02274F4120A467E009003C580070E880C
:1052D300828983A3A31252B67001E970F1EEC3333E
:1052E300FAE433FB1253797001EB70030253737FBB
:1052F300009003C580248882898312524FEFC33301
:10530300FAE433FBE5082AF582E5093BF583ECF083
:10531300A3EDF00F88828983A3A31252B67001E92B
:1053230070D49003B6122B0C7003A3E06978087055
:1053330019121010EEF50A780A1210147C827D03FC
:1053430079009003B6125382801A121010EEF50AF8
:10535300780A1210147C827D0379009003B61252EE
:105363003E1215D2740312103EAA08AB09121D2E69
:1053730012136E0236F0121D288A088B09EA2212D4
:1053830031321215D822C082C08380128A828B8365
:10539300A3A31242C39003C512461E121D2E9003EF
:1053A300C5123EBA7001EB70E30242E074F6120AD2
:1053B3004690036E12542C9003D012541912461EB9
:1053C3007AD07B0379501220229003D012524FEEF1
:1053D300FAEFFB1216209003D012542C90096DE0C3
:1053E3007002A3E0602D7A067B00121CB0EA700104
:1053F300EB602074D58A828B83F0E4A3A3F074015D
:105403008A828B83123F9C1252BF90096D124B3BD1
:10541300120BBE024B3212541D22E0F8A3E0F990A6
:10542300036E22F582EB124556E0FEA3E0FF22EE67
:10543300240B124553E0F50CA3E0F50D22124CA406
:10544300EA22EA240BF58222EE240D124553E8F0FA
:1054530022FAE5093400FB121E0C22124B94A3A37B
:10546300A3A3A3A3A32212546D22124B81A3A322AD
:10547300F09026BD12547B22E493F874012808E4CB
:105483003400F97A027B002274F7120A467E008008
:10549300041254A60E9026C7E493FAEEC39A40F181
:1054A300023FBCEE75F017A42499FAE5F03406FB2D
:1054B3001216082274F7120A467800790080031244
:1054C30055E59026C7E493FEC3E89EE9940050692E
:1054D300E8FEE9FFEE75F017A4FE85F00875F017F6
:1054E300EFA42508FFEE1256A0EF1257AB6A700324
:1054F300A3E06B70CAE8FEE9FFEE75F017A4FE7532
:10550300F017EFA42508FFEE24A3F582EF3406F588
:1055130083E06C7003A3E06D600A74FF6C70037426
:10552300FF6D709BE875F017A4F8AAF075F017E902
:10553300A42AF9E81255F280047A007B00023FBCEA
:1055430074F6120A467CFF7DFF7AFE7BFF1215FC80
:10555300EA7001EB60030255E27E007F008072EE89
:10556300F8EFF9E875F017A4F8ACF075F017E9A4B3
:105573002CF9E824A8F582E93406F583E0601EEEF1
:10558300F8EFF9E875F017A4F875F017E9A42CF90A
:10559300E824A7F582E93406F583E0702CEEF8EFF2
:1055A300F9E875F017A4F8AAF075F017E9A42AF939
:1055B300E82499F508E93406F509850882F583128C
:1055C300523E121440AA08AB09EE24010EEF340038
:1055D300FF9026C7E493F8C3EE98EF94004080024F
:1055E3004B32E8240108E93400F92275F017A424AA
:1055F30099FAE93406FB2274F7120A46EAFEEBFF36
:10560300EE7001EF600F12561B74FEF0A374FF12CD
:105613005730124BA5023FBC7C177D007900121C4A
:105623009E8E828F832274F7120A46EAFEEBFF7581
:1056330008008018A808E875F017A4A9F012579D70
:105643007003A3E06F60031257A305089026C7E415
:1056530093FAE508C39A40DC023FBC74F6120A468B
:105663001215FC8A088B09A808A909E87001E960EA
:105673000AE8240DFAE93400FB80047A007B000277
:105683004B32A3A3A3A3A3A3A3125695A3A3A3A39C
:10569300A322A3A3F088828983A3A3A3222499F539
:1056A300822274F0120A468A0C8B0D8C088D0989AC
:1056B3000A1216028A0E8B0FAE0EAF0FEE7001EFB9
:1056C300605512561BE50CF0A3E50D125730125727
:1056D30028E50A600AEE240F1235AAE50A800312B0
:1056E300571DF09003D4E07002A3E0601B9003B554
:1056F300E064017009EE240E1235AAE48010EE2452
:105703000E1235AA74078006EE240E125720125487
:10571300731207EF12544B025159EE240F124553E3
:10572300740122A3A3E508F0A3E509F02212546D46
:10573300A3A32274F5120A468A088B09ECFEEDFF37
:10574300750A008014E875F017A412579D7003A31F
:10575300E06F60031257A3050A9026C7E493FAE5A6
:105763000AC39A5024A80AE875F017A4A9F012579F
:105773008FE065087004A3E0650970C9E875F01748
:10578300A412578F1252BF80CE0238FC12579322B5
:1057930024A3F582E93406F58322125793E06E229F
:1057A300E81255EE121608223406F583E022F0A320
:1057B300EBF088828983E022C082C08374F81210E0
:1057C300D2851882851983AC82AD837583807582F7
:1057D300737408120F6C851882851983AC82AD83AC
:1057E3001257F6640170047900800279017408028B
:1057F30049CBFB121E06E922E0F508750900750A7C
:1058030000750B0022740912103E7F04020D3EEE58
:105813002412FAEF3400FB12179AE92212103E7F8A
:1058230003020D3EE0FAA3E0F9EA22E024F5C39473
:1058330012221219E08A0C8B0D8C0E8D0F22121876
:105843007E9004E612732D7A147B0022F0A3E0F01D
:1058530002608079031A1AEFFB1217A0740222E088
:1058630024FFF8A3E034FFF9221258C112103E7F3F
:1058730008020D3E1258A6A2E5221262C0E4F022ED
:10588300A3E08E828F8312588D22F0EE24FF1EEF49
:1058930034FFFF227F05020D3E1258A022EE241092
:1058A300F582EF3400F583E022E508126EAAE509DC
:1058B3001258A6227AD97B03121CDA740222121818
:1058C30072740422EE2423F582EF1258A622EE24EA
:1058D3000DF582EF1258A66401221258E2EE22E07F
:1058E300FEA3E0FF22FAEF3400FB79E1121ABE2295
:1058F300F0EEFAEFFB22EE240EF582EF1262C022E5
:105903007401026166C082C08374FE1210D28007E4
:105913007AD97B0312594E9003D9E07002A3E07049
:10592300EF9003DBE07002A3E060097ADB7B0312F4
:10593300594E80ED9003D9E4F0A3F09003DFF0908B
:1059430003E0F09003E1F07402801E121CD485186A
:1059530082851983EAF0A3EB125962121788221287
:105963005BF8AA82AB8322741112103E026080742A
:10597300F4120A46E9FE2473F582E43426F583E43F
:1059830093F508FA7B00121CB0EA7001EB600F126A
:105993006705E48A828B83A3A3A3A3F080287A02FA
:1059A3007B00121CB0EA7001EB6017EE247EF582D7
:1059B300E43426F583E4938A828B83F0741AA3126A
:1059C3005D567A007B0002580DE9FDEAFC74062D52
:1059D300FAECA2E0501EEA75F00A84ABF0EB601417
:1059E300740A2AC39BFAEBC394054004740A2AFA87
:1059F300740B2AFAEDC394134004781480027806DA
:105A0300E82AF8740928F8E43400F97A0A7B0012CA
:105A130007EFE8F9020FF0C082C0839003FFE05460
:105A230002600A12205EE9600479018002790002B3
:105A33006080C082C0839003FFE05402601D900326
:105A4300DFE070139003E2E07002A3E0600D9003C7
:105A5300E2E0125A63500479018002790002608007
:105A63002410125F70A2E722C082C0839003E1E09A
:105A7300C0E0908091E0FCD0E0C39C5005121CB0C4
:105A830080047A007B00026080C082C08312178882
:105A93007900026080C082C08374FE1210D2851820
:105AA30082851983125C00120DC30003B25BB95ADD
:105AB300135BB25B375B9004C6E0640F6018121788
:105AC3005EE97012851882851983126392900A2405
:105AD300125F63120BBE9004EEE0C0E0851882856E
:105AE300198312660AD0E0125BEF125F647414121A
:105AF3005BEFFCA3E0FD7ADB7B03121CCEE5A8FA87
:105B0300C2AF9003E1125BE6792012174C02594AA7
:105B1300121758E98518828519836011125F63741F
:105B23000D125BEFFAA3E0FB12205880E0125F63D3
:105B3300741580BB125F766076851882851983128F
