:020000040000FA
:060000000212A50207B583
:03002B00020F447D
:03003300020F1E9B
:03004300020F6A3F
:030053000207049D
:10008300020751010101010503010F10FEFFA51A2B
:10009300A51AA51AA51A5B195519A51A3229000024
:1000A3000000D028000000000C0000000C0001023A
:1000B300020A0000C71F000000000000000000004B
:1000C30000000000000000000500000000000A001E
:1000D3000000000006FF010100CC0C000000260D0B
:1000E300E80364006400B80102020008000005018F
:1000F3000701051E02051E0A0A03B80B02803E0112
:10010300020332000100210A1401E030313233349A
:10011300353637383941424344454600286E756CBD
:100123006C20706F696E746572290030313233341C
:100133003536373839616263646566003F3F3F0097
:100143000000807F0000803FF9021550B743BA5189
:100153000000204100E7DB2E0000A0401212C46023
:10016300461212B5603DE9687008F618F618F618DD
:10017300F622748067F7120193090909748067F7FF
:10018300221212B5601D1212C47005191919801AB2
:1001930012117E701F121192C37003E6673319198F
:1001A3001940071818182208080874FFF618F618DB
:1001B300F618F6221211926017121352702192F060
:1001C30012135B7019501720F01408080809090965
:1001D300E7F61819E7F61819E7F61819E7F62212E1
:1001E300135B60E6E869701F0808E62480F608E4FC
:1001F30036F618547FB47F0CE654806007F6E41893
:10020300F618F622181822E9C6CC08C6CD08C6CEC1
:1002130008C6CFC0E0E8C0E0EAC0E0EBC0E009E90F
:10022300F809E7FA09E7FBE6F918E6F8C3EC98EDF5
:1002330099EE9AEBC2E7F5F0EFC2E795F0500E6046
:100243000CEBCFFBEACEFAE9CDF9E8CCF8EAA2E76A
:10025300D2E7FAEB33FB13F5F0EEA2E7D2E7FEEFBA
:1002630033FFC5F013A2E730E601B313C5F0C3C0F3
:10027300E0C0F07F00C39BFB605E9418600F401DDD
:1002830014601AD0E023F9D0E0F80203658AF0E99C
:10029300486003D2F0E4AFF0FAF9F8803BEB30E4C6
:1002A3000D89F0EA6003D2F0E4AFF0F9CAF8EB305D
:1002B300E30D88F0EF6002D2F0AFF0E4CAC9F8EBC7
:1002C30054076014FBC3EA13FAE913F9E813F8EFD0
:1002D300135002D2E0FFDBEDD0E0C0E030E739C3DA
:1002E300E49FFFF5F0EC98FC42F0ED99FD42F0EE4F
:1002F3009AFE42F0D0E0F9D0E0F8E5F0607AE92325
:10030300F9EE20E742D8028067C3EF33FFEC33FCFA
:10031300ED33FDEE33FE80EAEC28FCED39FDEE3AD9
:10032300FED0E023F9D0E0F84002801BC3EE13FEB9
:10033300ED13FDEC13FCEF135002D2E0FF08B800FD
:10034300067F7F74FF802EEF3350178CF020F0026E
:1003530060100CBC000C0DBD00080EBE000408E8C4
:1003630060DFE933E813FFEE2313FE4F4D4C8008A3
:10037300E95480FFE4FEFDFCEE33EF33F47004FC3C
:10038300FD7E80D0E0FBD0E0FAD0E0F8D0E0CFC62D
:1003930018CEC618CDC618CCC6F9221212B57004F1
:1003A300181818221212C4700D74FFF61819F618D3
:1003B30019F61819F622E7548066F612135B700FCC
:1003C30012135270F014F608F608F608F680D112EC
:1003D3001352700CF608F608768008E6447F80EC2A
:1003E300121195700C12118160BFE65480F6E480FF
:1003F300BB121181700519191980A5E869700C7673
:100403003F18768018F618F6E8F922E6CDC0E01812
:10041300ECC0E0E633CD33CDD313F6E719FCE7198F
:100423001933CC33C3947F400ECD9D502408E6543A
:1004330080F6E418F6800FF4043D14501408E644E3
:100443007FF6187680E418F618F6D0E0FCD0E0FDCD
:1004530022CCD313CCFD18E4C6CBC0E018E4C6CA43
:10046300C0E00808ED08C633E613F618E433C67592
:10047300F003C3CA97CA09CB97CB199C40047D08E4
:10048300802EBD000302054716B6FF0506060816B3
:1004930018C3CA33CACB33CB33CA27CA09CB37CB2A
:1004A300193CC37D08803E187D0820E75CC633C62F
:1004B300CA33CACB33CB33DDF1D5F0EB30E77BCA9C
:1004C30097CA09CB974ACB199C406F4B7025E620FE
:1004D300E0218066187D08C3CA97CA09CB97CB1958
:1004E3009CD3C633C6CA33CACB33CB3350C9DDE73B
:1004F300D5F0E1D3E4C636C608C636C608C636C646
:1005030008C636C61818188031C3CA97CA09CB97CC
:10051300CB199CB34097C633C6CA33CACB33CB334C
:10052300DD34D5F02EC6A2E0C640C8CA27CA09CB1F
:1005330037194A70BECB3CB480B90808E63308E6E5
:1005430033601F181818D0E0FAD0E0FBD0E0FCD0DD
:10055300E0FD22187D08CA27CA09CB37CB193CD343
:10056300808013F618E4B67F11F618B6FF0EF6185E
:10057300C60470D20808768080CAF618F618F6808A
:10058300C5001212B5604F1212C46012E7548066A0
:10059300F612117E7011121352703B090909F4F619
:1005A30018F618F618F622121192701512135B083A
:1005B300080860EAE6447FF618768018E4F618F631
:1005C3002212135B60161213527012E4F608F60837
:1005D300F608E65480F609090918181822EAC0E05B
:1005E300EBC0E0ECC0E0EDC0E0E687F0A4FBACF0CC
:1005F30008E687F0A42CFCE435F0FA1809E687F046
:10060300A42C4B60027401CA35F0FCE433FB09E609
:1006130087F0D2F7A42CCB35F0FC1908E687F0A4B9
:100623002BCC35F0FBE433FD0819E687F0D2E7A4C1
:100633002C4ACB35F0CD3400FC09E687F0D2E7A491
:100643002DCC35F0FDE433FA0918E687F0D2F7A490
:100653002CCD35F0CA3400FC08E687F0D2E7D2F798
:10066300A42ACC35F07A7E20E70B0ACB33CBCD33EB
:10067300CDCC33CC33CB3350147004ED30E00ED2F9
:10068300F1E4CD3DCDCC3CCC3B5005DA05C2F1EBDA
:10069300547FC63308E63392F0FBE73309E733C3ED
:1006A3009A502D2B70190C0D4C4D70151806E60839
:1006B300C333700D20F10AA2F013F6E418800B4047
:1006C30024E4F630F002768018F618F618F6802443
:1006D300D33B14501074FFA2F013F6187680E4187D
:1006E300F618F6800FA2F013F618E63303F618ECAB
:1006F300F618EDF6D0E0FDD0E0FCD0E0FBD0E0FA58
:1007030022C0E074F2120AD4A2AFE433FED2AFA93E
:10071300A7A8A1E85954106008121D2775A1EF80FE
:1007230023E8A2E092F0E9A2E082F05017906198EA
:10073300E0F89006FAE0C398A2D265D0335002E8FD
:10074300F075A1FEEEA2E092AF7F01020B33C0E091
:1007530074F2120AD4A2AFE433FED2AF9061A4E0E4
:10076300F8759B00E59158540860087591F7121DC0
:10077300698023E59158541060087591EF121D6F3D
:100783008014E591A2E092F0E8A2E082F05007E045
:10079300C2E0F0121EA79061A3E0F8E5E958540403
:1007A300600E121E7D75E9FB906193E0A2E640F2B4
:1007B3008092C0E074F2120AD4A2AFE433FED2AF47
:1007C3009061A5E0F8E5BF585404600675BFFB12BD
:1007D3001EBF020747C3E498F8E499F91208198089
:1007E30026C3E49AFAE49BFBE920E7E9120819E43B
:1007F30098F8E499F922C3E498F8E499F9120819EE
:10080300E498F8E499F9C3E49AFAE49BFB22EB2019
:10081300E7CFE920E7E0B90010BB0008E88AF084DD
:10082300F8AAF022E4FBC8FA22EB70227B10C8334B
:10083300C8C933C9335007C39AC3DBF280069A5041
:10084300012ADBEAC833F4C8C933F4C9FA2275F0C4
:1008530008E4C833C8C933C933C99AC99B5004C90A
:100863002AC93BD5F0ECFBC833F4C8E4C9FA221219
:1008730008B220F01430E72B74FFFCFBFA747F807E
:1008830022E4FCFBFA7480801AB48008BC00F2BB3B
:1008930000EF800F50EBF9E4C39AFAE49BFBE49C6E
:1008A300FCE499C6CC18C6CB18C6CA18C6F922E40C
:1008B300C9C608CAC608CBC6D3330308CCC633920D
:1008C300F0C3947F402E94184019C9B90704CACBCA
:1008D300CC225025C309CA33CACB33CBCC33CC3358
:1008E300D9F422F4600DC9CCC313CB13CBCA13CAFA
:1008F300D9F6CC22E4FCFBFA2214FCFBFA2208080A
:1009030008EAC0E0EBC0E086F0E7A4FA180986F035
:10091300E7A42AFA180986F0E7A42AFA180986F048
:10092300E7A42AFA1986F0E7A4FBE5F02AFA1908E6
:1009330086F0E7A42BFBE5F03AFA190886F0E7A462
:100943002BFBE5F03AFA18180986F0E7A4C5F02B5B
:10095300FBE43AFA1908E7C5F0C6A426F6E5F03B2E
:10096300FBE43AFA1886F0E7A4F6E5F00826F6E485
:100973003B08F6E43A08F6D0E0FBD0E0FA22080898
:1009830008E630E7111211A6120999080808C644AF
:1009930080C618181822181818E9799EC608CAC6FE
:1009A30008CBC608CCC6C370207996CACBCC7019C5
:1009B300798ECBCC70137986CC700EF9802ACA332A
:1009C300CACB33CBCC33CC331930E7F2CCCBCA33DD
:1009D30050147004EA30E00DE4CA3ACACB3BCBCCE6
:1009E3003CCC500209C3E913C6CC182313C6CB1859
:1009F300C6CA18C6F922E4CFC0E0E4CEC0E0E4CD15
:100A0300C0E0E4CCC0E075F020E626F608E633F655
:100A130008E633F608E633F6181818EC33FCED3322
:100A2300FDEE33FEEF33FFC3EC9709ED9709EE9725
:100A330009EF97191919400FFFEC97FC09ED97FD82
:100A430009EE97FE191906D5F0BFECF709EDF70982
:100A5300EEF709EFF7191919D0E0FCD0E0FDD0E06B
:100A6300FED0E0FF222518C582C0E0E51934FFC59A
:100A730083C0E0E518C3958224F810AF0885831975
:100A83008582188008858319858218D2AFCEF0A39A
:100A9300E520F0A37808E608F0A3DEFAEFF0A3E57B
:100AA3008124FAF8E608F0A3E608F0A3E608F0A329
:100AB3000808E608F0A3E608F0A315811581D0E045
:100AC300FED0E0F8158115811581E8C0E0EEC0E0A5
:100AD30022C0D02518C582C0E0E51934FFC583C004
:100AE300E0E518C3958224F310AF08858319858246
:100AF300188008858319858218D2AFC8F0A3E9F05E
:100B0300A3EAF0A3EBF0A37908E709F0A3D8FAEC82
:100B1300F0A3EDF0A3EEF0A3EFF0A3D0E0F0A3D0A9
:100B2300E0F0A3D0E0F0A3E520F0A3E5F0F0A322EA
:100B3300851983851882E0C0E0A3E0F9A3E0FAA356
:100B4300E0FBA37808E0F608A3DFFAE0FCA3E0FDEE
:100B5300A3E0FEA3E0FFA3E0C0E0A3E0C0E0A3E0C6
:100B6300F5D0A3E0F520A3E0A3F5F010AF0885834B
:100B7300198582188008858319858218D2AFD0829F
:100B8300D083D0E0F8D0E03212133DB90003020B5A
:100B9300CAE4900301789A790B8002F0A3D8FCD9B8
:100BA300FA7A9A7B0D90008678DA79018015E493BE
:100BB300A3AD82AE838A828B83F0A3AA82AB838D9B
:100BC300828E83D8E9D9E77582247583FE74011276
:100BD300102D7582D5758326740012102D75F010B3
:100BE3008E1A8F1B85821F85831E85188285198324
:100BF300E0CEA3E0CF851F82851E83EBC9EAC8ED53
:100C0300CBECCAC3E833C8E933C9EA33CAEB33CB05
:100C1300C3EA9EF51DEB9FF51CB35004AB1CAA1D44
:100C2300EC33CCED33CDD5F0DAAE1AAF1B22121272
:100C3300B5601C1212C4601712135B7007121352B3
:100C43007001D322C0D01213527006D0D0B322C386
:100C53002233D0D0501430E0F6C3E7960809E79664
:100C63000809E7960809E796B32220E0D5E6970836
:100C730009E6970809E6970809E697B3221212B521
:100C8300601B1212C4601612135B700712135260BA
:100C93000CB322C0D01213527005D0D022C322331A
:100CA300D0D0501330E0EBC3E7960809E796080964
:100CB300E7960809E7962220E0E4E6970809E69715
:100CC3000809E6970809E69722D083D082ECC0E0B2
:100CD300EDC0E0E493A3FCE493A3FDED4C600D129F
:100CE3000DA4EC24FFFCED34FFFD80EFE493A3FCA3
:100CF300E493A3FDED4C600D120EA3EC24FFFCED79
:100D030034FFFD80EFD0E0FDD0E0FCE493A3C0E02E
:100D1300E493C0E022D083D082E9C0E0E493A3C38C
:100D230086F0C5F095F0F908E493A386F0C5F09535
:100D3300F0700BE493A3C3994005E9048002A3E494
:100D430075F002A42582F582E5F03583F583D0E0C2
:100D5300F9E493A3C0E0E493C0E0228519838518E6
:100D630082E0A3FEE0A3F5207808E0A3F608DFFA0B
:100D7300E0A3FFE0A3C0E0E0A3C0E0E0A3C0E0E0A5
:100D8300A3C0E0E0A3C0E010AF08858218858319F3
:100D93008008858218858319D2AFD083D082021050
:100DA30033C0E0C3E49396087401939618400FE4AC
:100DB3009366700808740193661870007019A3A3F2
:100DC300C3E49396087401939618A3A3400DD0E04F
:100DD300D0E0D0E0020D08A3A3A3A3A3A3D0E022F5
:100DE300D083D082C5F0E493A3C5F0C395F0F5F0AA
:100DF300E493A3C395F04005E5F0048001E475F0A6
:100E030002A42582F582E5F03583F583E493A3C03C
:100E1300E0E493C0E0227404800474028000CCC038
:100E2300E0EDC0E0E518C39CCCAD1950011D10AF37
:100E3300068C188D1980068C188D19D2AF120FAF3E
:100E4300D0E0FDD0E0FC2274028000CCC0E0EDC015
:100E5300E0E518C39CCCAD1950011D10AF068C18EA
:100E63008D1980068C188D19D2AF120F8DD0E0FD2D
:100E7300D0E0FC221212B560251212C460201213B6
:100E83005B7003021352080808E76670101819E72D
:100E930066700A1819E76670041819E76622F422C7
:100EA300C0E0C0F088F0E4936670080874019366AC
:100EB300187000A8F0A3A3700BD0F0D0E0D0E0D05E
:100EC300E0020D08A3A3D0F0D0E022D083D082CCDF
:100ED300C0E0E493A36006120FEF1470FAE493A347
:100EE30060061210FF1470FAD0E0FCE493A3C0E094
:100EF300E493C0E022C008C3E096F50808A3E09697
:100F0300420808A3E096420808A3E0964208A2D24A
:100F130065D033E5087001D3D00822C0E074F21223
:100F23000AD4A2AFE433FED2AFE58BA2E0500312A2
:100F330026CF758B00C2E8EEA2E092AF7F01020BD1
:100F430033C0E0C0D0E8C0E0E9C0E0A9A8D2AFC296
:100F5300C7E9A2E7E433F8E9A2E792AFD0E0F9D01A
:100F6300E0F8D0D0D0E032C0E074F2120AD4A2AFDD
:100F7300E433FED2AFC2C0E5D1A2E45003121C7F1A
:100F8300EEA2E092AF7F01020B33CAC0E0E493A369
:100F9300C582CCC582C583CDC583F0A3C582CCC52C
:100FA30082C583CDC583DAE5D0E0CA22CAC0E0E0BA
:100FB300A3C582CCC582C583CDC583F0A3C582CC2E
:100FC300C582C583CDC583DAE6D0E0CA22C008C393
:100FD300E096F50808A3E096420808A3E0964208C5
:100FE30008A3E09645087001D3D00822C0E0E4933B
:100FF300A3D39C5010E493A3C39C400AD0E0D0E059
:10100300D0E0020EEBA3A3A3D0E0227009080808E6
:10101300226016181818C6C333C608C633C608C6D6
:1010230033C608C633C6D5E0EA22C09FF59FE473F2
:10103300D09F22D083D082C09FE493C0E0740193F9
:10104300C0E0740293F59F227404800A740380063F
:10105300740280027401C0E0F404121066D0E0123E
:101063001300222518F58210AF08F518400C151946
:101073008008F51840021519D2AF8519832200C0E4
:10108300D0251810AF08F518500C05198008F5186D
:1010930050020519D2AFD0D022BB0102E722C08291
:1010A300C08389828A83BB0003E08002E493D083F8
:1010B300D082226016080808C6C313C618C613C612
:1010C30018C613C618C613C6D5E0EA222518F8E4D5
:1010D3003519F9222518FAE43519FB222518FCE401
:1010E3003519FD22C3E0C696F608A3E0C696F608B6
:1010F300A3E0C696F608A3E0C696F622C0E0E49302
:10110300A36C7009D0E0D0E0D0E0020EEBA3A3D033
:10111300E022251810AF08F518400C15198008F5C2
:101123001840021519D2AF22C3E09608A3E096082F
:10113300A3E09608A3E096A2D265D03322C3E79634
:101143000809E7960809E7960809E796A2D265D049
:101153003322E066701008A3E066700A08A3E06615
:10116300700408A3E06622C3E096F008A3E096F0BB
:1011730008A3E096F008A3E096F022181818E608F2
:1011830046087009E626087005E633F4220822199A
:101193001919E70947097009E727097005E733F4C7
:1011A300220922181818E4C396F608E496F608E410
:1011B30096F608E496F622E026F008A3E036F00857
:1011C300A3E036F008A3E036F022E026F608A3E019
:1011D30036F608A3E036F608A3E036F622E627F64D
:1011E3000809E637F60809E637F60809E637F6226E
:1011F300700422600D18C6C333C608C633C6D5E0D3
:10120300F41822E657F60809E657F60809E657F6F2
:101213000809E657F622E056F608A3E056F608A3B7
:10122300E056F608A3E056F622E056F008A3E0568F
:10123300F008A3E056F008A3E056F022E046F008D9
:10124300A3E046F008A3E046F008A3E046F022E658
:1012530047F60809E647F60809E647F60809E647A8
:10126300F622600D08C6A2E713C618C613C6D5E05A
:10127300F322C6F4C608C6F4C608C6F4C608C6F404
:10128300C622C3E09608A3E09608A3E09608A3E06D
:101293009622C3E7960809E7960809E7960809E73F
:1012A300962275D0007581407518017519030002E7
:1012B3000B8BE6084608C3134608336002E633F493
:1012C30022E7094709C3134709336002E733F422CE
:1012D300600C08C6C313C618C613C6D5E0F422E6CD
:1012E300F008A3E6F008A3E6F008A3E6F022E0F690
:1012F30008A3E0F608A3E0F608A3E0F622CAC0E0DC
:10130300E6F0A308DAFAD0E0FA22E0FAA3E0FBA3BE
:10131300E0FCA3E0FD22EAF0A3EBF0A3ECF0A3EDE5
:10132300F022E0F8A3E0F9A3E0FAA3E0FB22E8F05F
:10133300A3E9F0A3EAF0A3EBF022E5C754F84401D4
:10134300F5C77901222518F582E43519F58322E7DB
:101353002719471947194722E626184618461846FB
:1013630022C2AF75D69F02000022121036428D01B1
:10137300121036AC8D01121036038F011210362372
:101383008F011210367C8F01121036FD8F0112105F
:10139300365390011210367291011210363B9201AE
:1013A3001210369C92011210361A93011210366FE6
:1013B3009301121036A49301121036D69401121021
:1013C30036CD95011210362D960112103676960100
:1013D3001210369896011210361B9701121036B56B
:1013E30097011210363998011210365E98011210C7
:1013F300366F9801121036EB98011210369399014B
:10140300121036EC9901121036C79A01121036EBFE
:101413009A01121036069C01121036289C011210F4
:10142300364E9C011210369B9C01121036D89C013B
:10143300121036759E01121036D69F01121036FC1B
:101443009F011210367EA001121036C3A0011210A4
:1014530036DFA101121036FDA30112103608A401D4
:1014630012103613A4011210361EA40112103628CE
:10147300A40112103633A4011210364DA401121028
:101483003657A40112103661A4011210366CA40160
:1014930012103694A401121036E4A401121036F28D
:1014A300A40112103616A5011210363AA501121026
:1014B30036A0A501121036F0A5011210360EA601B2
:1014C3001210368AA601121036C8A601121036165B
:1014D300A7011210368AA7011210360EA8011210A6
:1014E3003666A901121036B6A901121036E8AA0110
:1014F30012103660AC0112103603AF01121036CF52
:10150300B0011210366EB201121036DFB2011210A2
:101513003637B401121036E6B4011210362BB5017A
:10152300121036EFB50112103687B601121036AF1E
:10153300B60112103670B70112103671BA011210CB
:10154300369BBA01121036F3BA01121036D3BB011F
:1015530012103618BC0112103661BC01121036D1BC
:10156300BC0112103631BE0112103691BE011210A9
:1015730036BBBF0112103634C2011210365AC201F3
:101583001210360CC40112103663C4011210366BEC
:10159300C5011210362AC60112103642C6011210B6
:1015A3003671C60112103660C701121036B3C70177
:1015B3001210361DC801121036B0C801121036B30E
:1015C300C80112103624C901121036DC2B00121088
:1015D300362F2C001210369A2E00121036E62E00EB
:1015E300121036F42F001210365F300012103694AA
:1015F3003000121036D431001210365A3400121053
:1016030036C93400121036853500121036323C00CC
:10161300121036CF3C00121036BA3F00121036A318
:1016230040001210363C41001210365E4200121088
:1016330036C44300121036C64400121036C24600A8
:101643001210368C4800121036EC4800121036C2C5
:101653004900121036794A00121036834A001210DC
:1016630036AD4A001210365A4B001210365A4C004F
:101673001210363C4D00121036FC4D001210362964
:101683004E001210364B4E001210368F50001210BF
:10169300366E5100121036BF51001210362D520013
:1016A300121036FC52001210363153001210367AE3
:1016B3005300121036AF5300121036E853001210C5
:1016C300363C540012103641540012103698540020
:1016D300121036C05400121036D85500121036417D
:1016E3005600121036A456001210361F570012105F
:1016F30036555900121036405A00121036C95B0095
:10170300121036345D00121036E35D0012103620DD
:101713005F00121036B65F00121036FD5F00121024
:10172300365861001210366C610012103676610073
:101733001210369E6100121036AA6100121036C8CC
:101743006100121036AA6300121036E36300121010
:1017530036ED63001210363764001210364E650002
:101763001210368765001210360F6600121036F716
:101773006600121036CF670012103620690012106F
:10178300361B6A00121036BF6A001210363F6B0018
:10179300121036566B001210367A6B001210368414
:1017A3006B001210368F6B00121036AD6B001210E7
:1017B30036F16B00121036506C00121036C96C00F3
:1017C300121036266D00121036196E001210362EC6
:1017D3006F00121036CE6F00121036917000121087
:1017E30036307100121036B671001210369872003E
:1017F300121036CA720012103636730012103609F0
:1018030074001210362F740012103649750012102E
:1018130036757500121036017600121036AC76005C
:10182300121036DE76001210361577001210364A83
:101833007700121036BF7700121036EB79001210C2
:1018430036147A00121036A57A00121036207B0067
:10185300121036447B001210368A7B00121036A712
:101863007B001210365E7C001210365CEA03121005
:1018730036A7EA03121036EDC90112103627CA0142
:10188300121036E6CA01121036D2CB01121036CD31
:10189300CC011210364ECE01121036C2CE011210F8
:1018A300368CCF01121036A1D00112103612D1019D
:1018B3001210364ED1011210369FD101121036A9E3
:1018C300D101121036E7D1011210364BD20112109A
:1018D30036EBD20112103664D3011210363BD40119
:1018E300121036A7D401121036C3D401121036FBDE
:1018F300D40112103628D501121036C5D5011210A5
:1019030036D5D50112103628D60112103634D60139
:1019130012103645D6011210364ED601121036B8C3
:10192300D60112103612D70112103660D7011210E9
:10193300367BD701121036B1D701121036D2D70138
:10194300121036DED7011210365CD9011210367A26
:10195300D901121036E3D901121036F6D90112104B
:101963003604DA01121036A6DA01121036B0DB01A2
:10197300121036CEDC0112103643DD011210364D43
:10198300DD01121036BADD01121036D1DD0112105D
:101993003610DE0112103651DE0112103680DE01E0
:1019A300121036B8DE01121036D7DE01121036F5EA
:1019B300DE0112103636DF0112103611E00112106B
:1019C3003657E00112103682E001121036EAE001C8
:1019D3001210361DE10112103656E1011210366461
:1019E300E101121036BCE101121036FBE1011210C5
:1019F300363BE2011210367FE201121036A2E201F9
:101A0300121036ADE201121036CBE20112103694F9
:101A1300E3011210369EE301121036DDE3011210CA
:101A230036F3E30112103662E40112103676E40154
:101A330012103685E50112103698E501121036AD05
:101A4300E5011210365EE601121036D0E6011210DF
:101A53003695E701121036A0E701121036C7E801E8
:101A6300121036E3E80112103642E90112103680F3
:101A7300E9011210369AE90112103617EA01121021
:101A830036AEEA01121036E5EA0112103625ED01F1
:101A930012103699ED011210360EEE011210366A4D
:101AA300F0011210367AF0011210367DF001121097
:101AB3003689F0011210369DF001121036A5F0019F
:101AC300121036DAF0011210369EF1011210360FA1
:101AD300F20112103675F20112103611F3011210D1
:101AE30036AAF301121036D8F3011210367BF40133
:101AF30012103687F401121036B6F401121036B9FB
:101B0300F40112103629F5011210362BF6011210CA
:101B1300360BF70112103696F701121036BBF80197
:101B230012103674F901121036ADF901121036DEB7
:101B3300F901121036E7F90112103623FA011210D7
:101B430036FDFA01121036AFFB0112103641FC01CB
:101B5300121036FEFC011210367DFD01121036AF55
:101B6300FD01121036EEFD01121036008003121033
:101B7300360E8003121036898003121036C180039B
:101B83001210362081031210369883031210367C0C
:101B93008503121036A98803121036D58803121054
:101BA300360089031210367389031210369D890398
:101BB300121036C78903121036F389031210363612
:101BC3008A03121036B0D50312103614D70312103D
:101BD3003624FF0212103635FF02121036D3FF02ED
:101BE30012103633D90312103641D903121036EDD1
:101BF300FF02121036C9E903121036D9E903121095
:101C030036F1E90312103652EA031210363DE403AB
:101C1300121036C1E40312103627E5031210362DD5
:101C2300E3031210364FE303121036B5E303121029
:101C330036C8E303121036A386011210363EB403EE
:101C43001210364CB403121036C5B4031210368882
:101C5300B503121036F5B703121036F9A5031210A7
:101C63003667A60312103633A703121036A7A7034D
:101C7300121036A5A8031210362BAA0312103690A1
:101C8300AA03121036E8AA03121036F1AA0312109F
:101C93003600AB0312103616AB0312103629AB0312
:101CA30012103632AB03121036EDDA03121036106F
:101CB300DC0312103637DC03121036F78C011210D6
:101CC300366FDC03121036C4AF0312103619B0039B
:101CD30012103613B20312103647B20312103669CC
:101CE300B20312103682B2031210369BB2031210E3
:101CF3003675B3031210360BB403121036F4D10346
:101D030012103626D20312103632D2031210367056
:101D1300D203121036A6D203121036D9D2031210F0
:101D23003658D30312103680D303121036E4C5039A
:101D330012103607C60312103652C6031210366449
:101D4300C6031210367FC603121036E5C6031210FF
:101D530036F1C6031210364EC70312103672C7038C
:101D630012103638C80312103645C80312103656FF
:101D7300C80312103646EB0312103663EB0312103E
:101D83003659BC03121036A2BD03121036B0BD0380
:101D9300121036C4BD03121036E1BD03121036F61D
:101DA300BD0312103609BE0312103690BE03121083
:101DB300361ABF0312103684BF0312103694BF03C2
:101DC3001210369AE803121036BEE803121036E6F4
:101DD300E8031210360EE90312103684C8031210FA
:101DE30036ABC803121036CAC8031210363CC903F7
:101DF3001210364ECD0312103667CD031210367E05
:101E0300CD0312103687CD03121036A5CD03121061
:101E130036AFCD03121036B9CD03121036CCCD0335
:101E230012103621CE031210365ACE031210368802
:101E3300CE03121036D9CE0312103625CF0312105B
:101E43003640CF031210364ACF031210365BCF034E
:101E53001210369ECF03121036B1EA0312103695D4
:101E63008A03121036C18A03121036E48A03121051
:101E730036F78A03121036128B03121036798B034E
:101E8300121036A88B03121036328F0312103664E9
:101E93009003121036979003121036FF900312101E
:101EA30036FB910312103623920312103638920335
:101EB3001210364892031210368C9203121036CE4B
:101EC3009203121036DE920312103697DF031210BC
:101ED30036A7DF03121036CBDF03121036F4DF030D
:101EE3001210361EE00312103642E0031210365968
:101EF300E00312103687E003121036AAE003121033
:101F03003602EB03121036A3BF03121036B3BF031E
:101F1300121036CFC00312103601C1031210362738
:101F2300C1031210364FC10312103661C1031210E0
:101F3300369DC10312103603C2031210363FC2038B
:101F430012103684C203121036B1C203121036D2F5
:101F5300C203121036DBD30312103639D403121026
:101F6300363CD4031210363FD40312103675D40313
:101F730012103678D4031210367BD4031210367E37
:101F8300D40312103681D403121036A6D4031210D0
:101F93003642D50312103620DE031210363BDE0321
:101FA3001210368CDE03121036D5DE031210368281
:101FB300DF0312103640E50312103693DC031210D0
:101FC30036D8DD03121036F29F0312103671A003C8
:101FD30012103691A003121036B6A003121036CA9F
:101FE300A00312103626A1031210364AA1031210C1
:101FF30036BCA20312103681A303121036E2A303E8
:102003001210363AA40312103671A403121036DDEF
:10201300A4031210360DA50312103687A503121060
:1020230036DBA50312103675D7031210368ED7038D
:1020330012103615D803121036BAD803121036E22E
:10204300D80312103626C30312103699C303121095
:1020530036A4C303121036C5C303121036E2E003DD
:1020630012103628E10312103614E2031210361749
:10207300E203121036E5E7031210361BE8031210D1
:102083003637E80312103679E80312103689E8036D
:102093001210360E93031210365F9303121036E4B8
:1020A3009303121036039403121036DB94031210B9
:1020B30036E494031210363595031210365E9503F9
:1020C300121036B495031210363396031210366A83
:1020D3009603121036B59603121036219703121089
:1020E300364D9703121036C3970312103620980308
:1020F3001210366398031210369E9803121036B0EE
:102103009803121036C29803121036E19803121086
:1021130036EA9803121036AF99031210361CE70300
:10212300121036A9CF03121036DFCF031210362E4A
:10213300D00312103691D103121036C5BA02121011
:102143003607BC021210363EBC02121036F9BD022D
:102153001210362ABE02121036C5C00212103605FE
:10216300C1021210368FC20212103624C30212109B
:102173003682C3021210360CC40212103644C40253
:1021830012103686C40212103600C6021210369F91
:10219300C702121036F5C90212103623CA021210F2
:1021A300364CCA0212103655CA02121036ABCA0296
:1021B3001210363DCB02121036F0CE02121036E565
:1021C300EB03121036FBEB031210369E7C00121049
:1021D30036B37C001210364E7D001210368A7D0015
:1021E300121036A17D00121036C77D001210360C76
:1021F3007E001210363D7E00121036757E001210DE
:1022030036E57F001210361AE2031210368CE20311
:10221300121036CAE2031210360BE303121036E92A
:102223009903121036309A03121036839A03121050
:10223300363E9B03121036869B03121036B79B0360
:10224300121036C19B03121036CE9B03121036D8E0
:102253009B03121036A89D03121036B69E0312106C
:1022630036779F03121036B09F031210367DCF02CC
:10227300121036D2CF02121036BAD00212103655CF
:10228300D102121036A1D102121036FAD102121065
:10229300360ED202121036FCD302121036EFD402DD
:1022A3001210364AD5021210362AD70212103641BE
:1022B300D70212103682D702121036BBD702121081
:1022C3003618D80212103629D80212103655D80201
:1022D300121036AAD802121036F0D8021210362C79
:1022E300DA021210365DDA02121036FFDC02121027
:1022F3003630DD02121036D2DD02121036D7DD027F
:1023030012103624DE02121036D1DE021210360A03
:10231300DF0212103614DF0212103617DF0212101A
:10232300368FDF02121036B8DF02121036E5DF02F5
:102333001210360DE00212103610E0021210361A97
:10234300E00212103631E60312103642E603121091
:1023530036CBE6031210363BA10212103669A102F6
:1023630012103695A20212103613A30212103687EA
:10237300A30212103601A40212103648A40212104E
:1023830036B6A4021210365FA502121036DAA50281
:1023930012103618A60212103677AA02121036054A
:1023A300AC02121036ADAC0212103608AD02121098
:1023B30036B5AD021210366EB0021210361EB102DF
:1023C30012103647B202121036B8B502121036C8D0
:1023D300B50212103618B7021210367EB702121069
:1023E30036A2B802121036F7B9021210367FF00285
:1023F30012103621F10212103693F1021210362315
:10240300F2021210368BF202121036EAF2021210A6
:1024130036FBF5021210360AF7021210368AF7025B
:102423001210363AF902121036EAF902121036A2E5
:10243300FA0212103652FC02121036E3FC0212109A
:1024430036CDFD0212103613EC0312103615EC03D1
:10245300121036F2CA0312103625CB03121036DEE1
:10246300CB0312103646CC03121036BACC0312102B
:10247300365AB80312103679B803121036C8B803A7
:10248300121036E4B80312103615B90312103625AC
:10249300B9031210363BB90312103654B9031210A4
:1024A3003624BA031210365DBA0312103667BA0324
:1024B30012103671BB031210367CBB031210368E1A
:1024C300BB0312103697BB03121036A1BB031210C5
:1024D3003645AB0312103641AF031210365DAF031E
:1024E300121036A6FE011210364FE00212103668A3
:1024F300E502121036B9EB0312103633E90312105A
:10250300365DE90312103682EB03121036E78501BC
:102513001210362885011210365B84011210361012
:102523008401121036ED8301121036A983011210B3
:10253300366E83011210364A83011210362F83013F
:10254300121036D782011210367C8C01121036B16C
:102553008B011210362E8201121036A9810112103E
:1025630036A98B01121036EE8A011210364681010C
:102573001210361881011210360681011210360A24
:10258300A102121036EBA00212103607A00212109D
:1025930036649F02121036219E02121036AB9B0244
:1025A300121036319B02121036249802121036F0A4
:1025B3009702121036AB970212103681970212104F
:1025C30036B79602121036679602121036B5940289
:1025D3001210362294021210361F94021210362063
:1025E3009302121036EC92021210361F920212104E
:1025F30036818A01121036928901121036888901B8
:102603001210367689011210364A89011210362FBC
:102613008801121036F387011210365390021210FC
:1026230036FA8F02121036CC8F02121036C98F027F
:10263300121036A78701121036B68F0212103679A0
:102643008F021210366C8F02121036738E02121024
:1026530036838701121036FD8D0212103664DC03B7
:10266300121036BB8D021210365F8D021210362EF9
:102673008D021210360A8A02121036F389021210E2
:1026830036528902121036898802121036498602A0
:10269300121036C783021210368583021210364C8D
:1026A3008202121036FF81021210363F810212108D
:1026B300361081021210366A80021210365C8701CE
:1026C3001210363A800212103600800212103605BC
:1026D300E40300000080FBE47387000100900D24F5
:1026E300000200F70D25000200F90D26000200FB91
:1026F3000D27000200FD0D28000100FF0D29000138
:1027030000000E84000400010E86000100050E2A5D
:10271300000100060E2B000100070E2C0001000A29
:102723000E2D0008007B0D2E0001000B0E2F000163
:10273300000C0E300001000D0E31000100830D323C
:10274300000100840D33000100850D340001000EEB
:102753000E36000100860D380001000F0E3900010E
:1027630000090E830002001C0E630001008F0D643C
:10277300000100780D65000100080E6D0001001BCB
:102783000E6E000200790D43000100100E4400029A
:1027930000110E45000100130E46000200140E47FF
:1027A300000800870D48000100160E4900010018BB
:1027B3000E4A000200190E4B000100170E0400011F
:1027C300001E0EA1000100210E37000100200E881B
:1027D3000001001F0E00000000000000013636015A
:1027E30001000102010001030100010401060605C5
:1027F300020000070100340801000F090401010D64
:102803000100FF0E08000017020000190100FF1A63
:102813000100011B0100FE1C0100081D0200001F36
:1028230001000120010001210200002301000F2407
:102833000200002601000127010008280200FF2AE8
:102843000100072B0102402C0100002D0100012E85
:102853000100012F0100FF30010B1C310800003A79
:102863000100083B01000F2F010000030271023039
:1028730001600211027002010202020202800210D0
:102883000261023A00410063027302720262024370
:1028930002000213023800000200020402120200C6
:1028A3000200020002000204020402370037003C67
:1028B30002440200023900000200026502000235F0
:1028C30002810200020502820283020002010371F7
:1028D30003010301030103010301032203020301B3
:1028E30003100300030003000300030003000300BD
:1028F300034203000324030603000300030403123B
:102903000325032303250323030403040300030014
:1029130003000344030003000323030003650321AF
:1029230000350381030003050300030003000303D1
:10293300007100300160001100700031022003506B
:102943000480001000610000001400630073007233
:1029530000620043000000130006000000000004B2
:102963000012000000000000000000040004003713
:102973000037003C02440000000000000000006536
:102983000000003500810000000500000083000006
:1029930000030471040204600411047004020402BD
:1029A30004010402041004610400041404630473A6
:1029B30004720462044304000413040604000400C4
:1029C3000404041204000400040004000451046419
:1029D3000000040004000444040004000400040094
:1029E30004650400043504810464000504000483C1
:1029F300040004010171010101010111010101310F
:102A030001010101018001100161013B0014006318
:102A13000173017201620143010001130106013DCB
:102A2300013500040112010001000100010001044D
:102A3300010401330133013C01440132013600003A
:102A430001000165010001350081010001050182DA
:102A5300018301000136000100060000000F0000A1
:102A6300000000000000000000000003FFFF000062
:102A73000403FFFF0000FFFF0FF4010005C404037C
:102A830020000100000B0000000000000000030113
:102A93000F00000B241300AB2301000B240200756D
:102AA3002303007B2304008123050087230600936F
:102AB30023FFFF00000113160649160843160B6196
:102AC30016107D15021916053716071F160CF51576
:102AD3000D0716FF0000B519E519BB19C119DF1958
:102AE300D319CD19EB19F119F719031AC719AF192E
:102AF300A91903EAF5E5D5D5C5B5A59595858575D8
:102B03007565655555454535352525151505001656
:102B13000F00000B150B020002220F32000006A566
:102B23001AB71ABD1A7F19C31A79198519B918B3B7
:102B330018EF18F518E918A118051B231B291B0BFF
:102B43001B171B111B00011916181616152303005A
:102B53000C0E020B040B0A0708000F30301618196D
:102B630020231A1C1E3000383C3E363B3B352B439A
:102B73002C303017181921301B1D1F300003494812
:102B8300424D1817250502D919FD191D1B091A0FE6
:102B93001AF91AC91ACF1ADB1AD51A02040201014B
:102BA30001010902C518CB18BF18FB180005150D44
:102BB30009100804D118E31800BE040A0E0004002B
:102BC300E803280015000308100A030809000001A0
:102BD300FF1E1E0C0405080F0974F7120A68E9901A
:102BE30003CFF0E4900384F012205D9003E3E4F05C
:102BF300A3F09003D0F0A3F012180B122651121475
:102C0300D5122063900344E4F0A3F09003F5E07041
:102C130002A3E060099003F51263FB1226DA902BFE
:102C2300DAE493FA79021224B30255AF74F2120A6A
:102C330068EAFEEBFF74805FF9E47001E960679076
:102C430003CFE0F91220C38A088B09EA7001EB6015
:102C53004C7C0080010CEC75F003A4A9F024B8F5BA
:102C630082E9342AF583E49364FF602AE493FA85C6
:102C730008828B83E06A70DDAA08EC75F003A42454
:102C8300B9F582E9342AF583E493C0E0740193F53E
:102C930083D0821226DAAA08AB091220B7EEFA749F
:102CA300806FFB022E8474205FF9E47001E9601DDC
:102CB3001216DF8A088B09EA7001EB600A12160705
:102CC300AA08AB091220B7EEFA742080D4EE542080
:102CD3007003022DB5750A001252E47001EB700BFC
:102CE3007C027D007A207B001274C27C0079047A16
:102CF300007B001216A98A088B09801874018508C5
:102D030082850983A3A3A3A3A3A3A3A3A3F0850CF1
:102D130008850D09E5087002E50960717C007904F6
:102D2300AA08AB091216A98A0C8B0D750A01E508CE
:102D33002404F8E50912506D24FFF0A3E034FF12D8
:102D430077A37002A3E070C6850882850983A3A3D5
:102D5300A3A3A3A3A3A3A3A3E06401709F850882F5
:102D6300850983A3A3A3A3A3A3E05404708E7406CD
:102D7300850882850983A3A3A3A3A3A3A3A3A3F085
:102D83007AB7850882850983122FE9808112167923
:102D93007C0079017A007B001216A9EA7001EB70BE
:102DA30009E50A70057A20122E8774206EFAEF0265
:102DB3002CA5EE5410600712150B741080EEEE5420
:102DC300406007121565744080E2EE54806007127C
:102DD300141B748080D674015FF9E47001E9601AF2
:102DE3009003F7E07002A3E060099003F71263FB1E
:102DF3001226DAEEFA7401022CA474085FF9E47067
:102E030001E9602D1214E1900D84E06401701B90C0
:102E13000D85E06015FC75F0E8A4CCAAF075F0030D
:102E2300A42AFD7A007B081274C2EEFA7408022CFD
:102E3300A474105FF9E47001E960129003E1E060AB
:102E430005E4F01214E1EEFA7410022CA474025F8C
:102E5300F9E47001E9600A121805EEFA7402022C13
:102E6300A474045FF9E47001E96012126783125DD0
:102E7300DD7901124099EEFA7404022CA47A007BE6
:102E8300000252287B009003CFE0F91221EF227455
:102E930002121081025FF674F7120A6874E11211CC
:102EA30015EAFEEBFFEE7001EF603385188285199A
:102EB30083AC82AD831217097406121348E0601EB7
:102EC3007417121348E0FD7401121348E0FCEEFA84
:102ED300EFFB7900122585E9600479A4800279006B
:102EE3000255AA74F5120A68EAFEEBFF8E828F83FD
:102EF300A3A3A3A3A3A3E05440601B1263F7125937
:102F03004360067AFF7BFF80758E828F8312559A0A
:102F1300FAA3E0FB805E90036FE0A2E150538E8240
:102F23008F83122FD5EA241CF8EB3400F9E8FCE96F
:102F3300FD7508FE7509FF7808121053EE240E1272
:102F43005904120E1D79008C828D831269FFA3A38D
:102F5300A3E0F5088C828D83A3124134E0FDAC0815
:102F63008A828B83126CAB1214E774041210818073
:102F73000312172D74FE6A700374FF6B60431263B0
:102F8300F7126C8D1217ABE98E828F836006122FB6
:102F9300DFE48005122FDF7401F07CD77D158E826C
:102FA3008F83126CAB1224ADE9F5087017EE700134
:102FB300EF60097901EEFAEFFB121685A908024DBD
:102FC300EA7508CDAA088E828F83122FE9E960DDA6
:102FD30080EAE0F8A3E0F9E8FAE9FB22E0240DF83F
:102FE300A3E0123B9D22E0240C123453F91215E3A3
:102FF3002274F6120A68E9FEEAFF7A0F7B001220B8
:10300300B1EA7001EB6019740C8A828B83F0EEA332
:10301300A3F0EF8A828B83A3F01265FC79008028EA
:10302300EEF91216AF8A088B09A808A909E87001FE
:10303300E960137406888289831277A8E0F9121570
:1030430077EEF912168B791002640FEAFCEBFD7A26
:10305300017B009003CFE0F91221E322C082C083F9
:10306300790090036FE0A2E1EA500E125592120E1E
:10307300CE01010A9030009130125592120ECE010A
:1030830003049030020790300A9030913009025FB8
:10309300F674F2120A68EAFEEBFF8C088D09890ABE
:1030A300740E121348127072850C82F583E4F0A338
:1030B300F01231B260201231C1701B8E828F83A354
:1030C300A3A3A3A3A3A3A3A3125A22850C82850DB2
:1030D30083125DDD8003750A00EE241DF582EF1275
:1030E3005597120DE301096F3100311D312A313536
:1030F300316F3155316F3179319231A631780C12FC
:103103001053AC08AD09EEFAEFFB1214F37402127C
:103113001081E9F50AA90A025228AC08AD09EEFAB2
:10312300EFFB1214F980EEA90AEEFAEFFB1217C3B4
:1031330080E012469064027033E50A700A1273F657
:103143007003A3E06970CEEEFAEFFBA90A12177BB6
:1031530080C01273F67003A3E06970101246906486
:10316300027009EEFAEFFB12176380A9750A007962
:103173000112206F809F9003F9E07002A3E0609535
:10318300EEFAEFFB9003F91263FB1226DA80861244
:1031930073F67003A3E06970D3EEFAEFFB1217CF57
:1031A300023118EEFAEFFBA90A1217DB023115EE12
:1031B300241D123C211255A5F912178DE9228E8286
:1031C3008F83A3A3A3A3A3A3A3A3A3125947640217
:1031D3002274F4120A6874DE1211158A088B098AA4
:1031E300828B83A3A3E0F91216AF8A0A8B0BAE0A74
:1031F300AF0BEE7001EF70030232EA850882850996
:1032030083A3E064F16033850882850983A3E064C6
:10321300CD6027850882850983A3E0641A601B8536
:103223000882850983A3E064E9600F850882850924
:1032330083A3E064E1600302337F8E828F83A3A3C1
:10324300A3A3A3A3A3E05408F9E47001E970030264
:1032530032F274058E828F83A3A3A3A3A3A3A3A394
:10326300A3F09003FDE07002A3E060099003FD1258
:1032730063FB1226DA9003FFE07002A3E06039904B
:10328300036FE0A2E150318E828F831274FEA3A3F9
:10329300A3A3A3A3A3A312592288828983123BB5B4
:1032A300EA7001EB6012850882850983A3E0F99037
:1032B30003FF1263FB1226DA8E828F83A3A3A3A3D9
:1032C300A3A3A3A3A3E06402701074068E828F836A
:1032D300A3A3A3A3A3A3A3A3A3F085088285098320
:1032E300A3A3E0F912168B12167974220252F47911
:1032F30000121685E9700302337F90036FE0A2E1A9
:1033030040030232651234487002A3E070030232B4
:10331300658E828F83126CAB740312134812719BF8
:10332300850882850983A3E064E9701B1234371290
:103333001057850882850983A3E0F50A780A1210DD
:10334300571246A3121081740C12134812342D1213
:103353003BAD125DDD7900740E12134812592274CD
:103363000C121348123BD870030232658E828F838E
:10337300A3A3A3A3A3A312592F02326485088285B2
:103383000983A3E0C0E07402121348D0E0123BECBF
:10339300127330EE240B124693851882851983AA83
:1033A30082AB83700512144B8003121787740212C9
:1033B3001348E064E97014123437121057750AE9A0
:1033C300780A1210571246A312108190036FE0A2DD
:1033D300E140030232BB8E828F83A3A3A3A3A3A3E3
:1033E300A3A3A3E0640270298E828F83A3A3A3A364
:1033F300A3A3E05404601A1263F7125943700D1229
:1034030063F774FFF0A3F074050232CF7403023242
:10341300CF850882850983A3E064E960030232BB98
:10342300EEFAEFFB1217E10232BBE0F8A3E0F98EEC
:10343300828F83228E828F83125A36E8FAE9FB75D4
:103443000A01780A228E828F83E0241C12345322CD
:10345300F8A3E01267AF2274F7120A68EAFEEBFFE3
:103463007508001231C170037508011273F67003F9
:10347300A3E0697006E508D2E1F508E50860158E5A
:10348300828F83A3A3E07006E508D2E58004E508F4
:10349300D2E6F50812593664017006E508D2E0F564
:1034A300088E828F83A3A3E0600D1231B2640160A2
:1034B30006E508C2E0F508E508A2E14004D2E7F515
:1034C30008A9080255AFC082C08379018A828B8321
:1034D300A3A3E0C394024001198A828B83A3A3A30D
:1034E300A3E0C39402400279008A828B83A3A3A33F
:1034F300A3A3A3A3A3A3E064F87004A3E064FF6001
:10350300488A828B83A3A3A3A3A3A3A3A3A3E06457
:10351300F97004A3E064FF60308A828B83A3A3A3C2
:10352300A3A3A3A3A3A3E064FA7004A3E064FF60CE
:10353300188A828B83A3A3A3A3A3A3A3A3A3E06457
:10354300FB7004A3E064FF700279008A828B83A37B
:10355300A3A3E0FC900372E06C60027900902BD58A
:10356300E493C394805018E493C333C0E0EA241176
:10357300F582EB124696FAD0E0C39A500279000224
:103583005FF674EA120A6874DC121115EAFEEBFFA7
:103593007403121348123FB27514007515007405B5
:1035A300121348AC82AD838E828F83A3A3A31234FC
:1035B3002F126CA9121709E9600F7405121348AA98
:1035C30082AB83121601E97008790112206F023B66
:1035D30092EE241B125A1C7412121348125DDD74EE
:1035E3000B121348E06021741C121348E0FD7406AB
:1035F300121348E0FC8E828F83126CA97901122585
:1036030085E96004790280C37405121348AA82AB6A
:10361300831215FBE9F509740B121348E0702A9025
:10362300036CE06024742255096422601C744255C3
:1036330009644270CF7422121348123BBC600A74AF
:1036430022121348123BC270BBE9A2E65012740562
:10365300121348AA82AB831215E9E970030235CC31
:10366300EE242C1259041242587003A3E069701C13
:1036730075080078081210577808121057EE242E98
:10368300123BA5123BC91246B9121081740B1213D7
:1036930048E07003023743123BC9123BB58A0A8BD9
:1036A3000BEA7001EB70030237D07406121348E083
:1036B300F88E828F83A3A3E028F8A3E03400F97483
:1036C3000D28F582E439F583E0FA850A828B83A31A
:1036D300A3A3E06A601AEA850A828B83A3A3A3F0FB
:1036E3009080F4780C1212F1850A828B83123BF8D6
:1036F300790474061213481271072AFCA3E03400FC
:103703008C82F583A3AA82AB831220A58A0C8B0D2E
:103713008C0E8D0F850A82850B83A3A3A3A3781038
:103723001212F17810790C1212955003023B929009
:1037330080E4780C1211CD850A82850B83123BF845
:1037430090036FE0A2E1500302386C900384E064BD
:10375300046008E064096003023B92E509A2E540C6
:1037630003023814123C0EC0E07401121348D0E077
:10377300123C06C0E07402121348D0E0F074161233
:103783001348E0640170207410121348123BE07078
:1037930003A3E0697011740E1213481231CE70073F
:1037A3007416121348E4F0EE2424125904120E196D
:1037B3007404121348AC82AD837409121348AA82AD
:1037C300AB831214517404121081023B929003C90B
:1037D300E0640160030237437422121348123BBCB6
:1037E3007009E509A2E65003023743741212134825
:1037F300E064FF7004A3E064FF7003023B92EEFCFD
:10380300EFFD7405121348AA82AB8312160D023B17
:1038130092A2E64003023B927422121348126B31C8
:10382300701E741C121348E064026003023B92741E
:1038330005121348AA82AB83790012177B023B92CD
:103843007422121348123BC26003023B92741C128F
:103853001348E064046003023B927405121348AA00
:1038630082AB8312176F023B927416121348E06007
:1038730025EE2402F8123B9C123BADA3A3A3A3A302
:10388300A3E0141267B8A3A3A3E0C0E07416121355
:1038930048D0E0F07006E509C2E7F509900384E03B
:1038A30064046005E064097068740E1213481274AE
:1038B300037003A3E0696019740E1213481231CE2A
:1038C300600F740A121348E0540364016003023B5F
:1038D300927407121348E0701B123C0EC0E074018F
:1038E300121348D0E0123C06C0E07402121348D011
:1038F300E00237A97422121348126B3170030238A5
:10390300257422121348123BC26003023B92023811
:1039130050750800746155097003023A17E509A24E
:10392300E050621259197405121348AA82AB83122C
:10393300156BE9704D121739E9F50874161213481F
:10394300E0700F7410121348123BE07003A3E06998
:1039530060331259177405121348AA82AB831215E8
:1039630071E96013740E121348126D20121348127A
:103973005DDD751404800EE509C2E5F509750800DF
:10398300800353099FE509A2E5503C123C0EC0E0B9
:103993007401121348D0E0123C06C0E07402121303
:1039A30048D0E0F0EE2424125904120E19740412C4
:1039B3001348AC82AD837409121348AA82AB8312F5
:1039C30014517404121081E509A2E64003023ADEA1
:1039D300740312134885820A85830B780A121053E5
:1039E3001259177407121348AA82AB831215EF7486
:1039F30002121081E9F5087003023ADE74221213F1
:103A03004812559A64016003023ADE74104514F5B6
:103A130014023ADE7407121348E06401703574220D
:103A230012134812559A64057029740312134885BA
:103A33008208858309780812105379001259197482
:103A430007121348AA82AB831215EF740212108176
:103A5300023B927416121348E07012742212134838
:103A630012559A64036003023801023B9212167FD7
:103A7300E96003023B92740E121348126D20121375
:103A830048125DDD7808121057741E121348AC8279
:103A9300AD83740F121348126CAB740A121348E00F
:103AA300F91215AD7401121081E9600F7514208E9F
:103AB300828F83A3A312559A543FF0790074101296
:103AC3001348125922740E121348123BD86006741D
:103AD300204514F514121739E9F508740312134835
:103AE300E064FE7004A3E064FF7003750800E50959
:103AF300A2E74003023B92E5087003023B928E82E9
:103B03008F83A3A3A3A3125CFA8A0A8B0BEA700127
:103B1300EB607CEE2404F510EF3400F5118E828FF8
:103B230083A3A3125D0212104F851082851183E0D7
:103B3300FC7D00125CF41210817407121348123CCE
:103B4300297401121348E4F0123BEB85820C858340
:103B53000D780C1210537814121053780812105762
:103B6300EE2412125904120E1D851082851183E072
:103B7300F9740A121348125922AA0AAB0B1216F748
:103B83007407121081E96007AA0AAB0B122135747E
:103B9300241210817F0E020D5EEF3400F9888289B2
:103BA3008322F582EF1255D2F922125950F5838AF6
:103BB3008222123CC512182F221255A56406221226
:103BC3006405E0640722EE242A123C21123CCA2435
:103BD30012123C2122123CC51214EDE922125A366C
:103BE300EE24121255CF6822A3123BF022F085185F
:103BF3008285198322A3A3127A9BA3E50EF0A3E582
:103C03000FF022F0EE24301255CF22EE242E123C78
:103C130021123C29EE242F1255CF22EE240FF582D8
:103C2300EF3400F58322E0851882851983F022742E
:103C3300F4120A68EAFEEBFF8C088D09900D84E00C
:103C4300600F1273F67003A3E06970051214E1802C
:103C5300517900126C9E1215898A828B83E58270DA
:103C630002E5836035A3A3A3A3A3A3E05418602AAA
:103C7300E508241BF582E509125907120E1D124CA3
:103C830028125907120E1DEE2418123BA5123CA848
:103C93001215B9740412108180087900123CA8121D
:103CA30015050252F78E828F83A3A3A3A3A3A3A315
:103CB300A3A3123CCA240BF582EF123CC1223400A9
:103CC300F583125950FB22125926EE2274F0120A80
:103CD3006874EA1211158A0A8B0BEA2402F50EEBBB
:103CE3003400F50F0A0AFB1225FD8A088B09AE087A
:103CF300AF09750901850A82850B83A3E0F50C756D
:103D03000801AC0EAD0F851882851983AA82AB8397
:103D13001222197408121348123FB2740A1213487C
:103D23007402F07413121348E4F0900D9CE07010C9
:103D3300EE7001EF700AE50C70067509C3023EE5EB
:103D4300900384E0640860067509C2023EE1850AB7
:103D530082850B83A3A3A3A3A3A3A3A3A3A3E0A2EB
:103D6300E1500EA2E35005750804800C750803802A
:103D730007A2E35003750802EE7001EF7003023EE1
:103D83000A8E828F83A3A3A3A3E06404600D8E82B3
:103D93008F83A3A3A3A3E06403700C74046508607A
:103DA3002C7403650860268E828F83A3A3A3A3E0EC
:103DB3006402600D8E828F83A3A3A3A3E0640170CA
:103DC3002874026508600674016508700F8E828F7F
:103DD300831249BC121348125DDD802B8E828F83C0
:103DE300A3A3A3A3E06402600D8E828F83A3A3A386
:103DF300A3E06401700A8E828F83124B501226DA7D
:103E0300123FA47E007F007408121348E064FE7022
:103E130004A3E064FF70421226BDE9703CE50C6028
:103E2300179003C1E06402700F900DA31249BC12F6
:103E33001348E8F0A3E98020850A82850B83A3A3B6
:103E4300A3A3A3A3A3A3A3A3E05402F91215177476
:103E530008121348EAF0A3EBF07408121348E06465
:103E6300FE7004A3E064FF70057509C78070E50C5C
:103E7300F50D780D121057850A82850B83A3A3A332
:103E8300A3A3A3A3A3A3A3E0F9123F997409121355
:103E930048126CAB1214757401121081E9703FA9BA
:103EA30008123F9974081213481240928A0E8B0F1E
:103EB300AE0EAF0FEE7001EF601C7402650C700B59
:103EC300EE240512469354FB4408F0740A12134877
:103ED300E4F0F50980087408121348123FB2E50CA8
:103EE300700F851882851983AA82AB8312248F8071
:103EF30010FCA908851882851983AA82AB8312173F
:103F030069E9FAEE7001EF6053E50C60208E828F51
:103F130083A3A3A3A3A3E0D2E6F07402650C700D00
:103F23008E828F83A3A3A3A3A3E0D2E5F0850A82A5
:103F3300850B83A3A3A3A3A3A3A3A3A3A3E0A2E6A5
:103F4300500D8E828F83A3A3A3A3A3E0D2E7F08EA9
:103F5300828F83A3A3A3A3A3A3E004F0E5097003C3
:103F6300EA602EFC7D007A017B10122069EE70015D
:103F7300EF6003123FA47408121348E064FE700458
:103F8300A3E064FF600B7408121348124B5012260F
:103F9300DA7416026C77E50A2402FCE50B3400FDA3
:103FA30022E50A2402FAE50B3400FB1225F1227400
:103FB300FEF0A374FFF02274F7120A6874F712116B
:103FC30015EAFEEBFF900384E06403600DE06401F7
:103FD3006008E06409600302408D8E828F83A3E052
:103FE30060030240697C007D007A027B0012206935
:103FF300EE2402FAEF125074126C93125DDD7953C2
:104003001224837900124099900384E064096009C3
:10401300900382126CAB121829740112642E74047B
:10402300900384F07401121348AA82AB83794A1275
:10403300247D7401121348AC82AD837A7A7B031218
:10404300221979007401121348AC82AD839003786E
:1040530012409290036FE0A2E35004D2F08002C2B8
:10406300F012641480218E828F83A3AE82AF83FC0F
:104073007D007A037B101220698E828F83E0F91210
:104083004099E4900384F012165B74090255AC1254
:104093003CC512260F22900382123CC512146F22D4
:1040A300C082C083900344E07002A3E07041900398
:1040B30084E0120ECE000301C54005D44006E34060
:1040C300F24090034CE07002A3E0606290034C80E6
:1040D30057900348E07002A3E06053900348804880
:1040E30090034AE07002A3E0604490034A80399051
:1040F3000344E07002A3E0600512469A700C8A82C2
:104103008B83A3E0F91214578024900345124134A2
:10411300A3E0640270051217F980139003FBE070AB
:1041230002A3E060099003FB1263FB1226DA025F2D
:10413300F6126A06A3A3A3A32274F4120A6874FBFB
:104143001211158A088B097A0F7B001220B18A0A93
:104153008B0BAE0AAF0BEE7001EF700302424D748E
:10416300028E828F83126AAF795012247D85088272
:10417300850983A3E06003024236900382E064FF73
:104183007004A3E064FF6035900382E064FE700472
:10419300A3E064FF60278518828519831242587053
:1041A30003A3E069601774EA850882850983A31273
:1041B30048747A827B03795012248380768518822F
:1041C300851983127495125DDD7A757B0379531219
:1041D300247D9003751266D3125DDD7A787B0379B3
:1041E3004B12247D7A777B0379E112247D90038936
:1041F300E0C3940F5022900377E0C0E074021213DF
:1042030048D0E0F074041213487401F074021213DE
:1042130048AA82AB831224A7750A00780A121057A2
:10422300780A121057900DEBE0F9124DDD1246B9E2
:10423300121081850882850983124252F07403901B
:104243000384F0EEFAEFFB1265FC74050252F4A34B
:10425300124C3CA322127499E0682274F0120A688B
:1042630074EB1211158A828B83A3A3A3A37808127C
:1042730012F17808121275900385780812122C75C2
:10428300087F75097F7C00750C01750D00750E00A4
:10429300750F00EC780C12100E900385780C121237
:1042A300199080F4780C121155602A7D009003D088
:1042B30080118E828F83A3A3E06C70010DEE241412
:1042C3001259041254357001EF70E7EDC39508508D
:1042D300048D088C090CECC3941B40AB8A828B833E
:1042E300A3A3A3A3C082C0839080F4780C1212F11D
:1042F300D083D082780C121155606FEA125708FAF6
:10430300E9FB8A828B83780C1212F1900385780C77
:104313001212E28A828B83780C1212F1851882853D
:104323001983780C1212E274041213487401F0908A
:10433300038BE0C0E07405121348D0E0F074071259
:1043430013481244BE8075900382126CAB12149909
:104353008A0A8B0BA80AA90B900382E8F0A3E9123F
:104363004D35687003A3E069602C9003D012543577
:104373007001EF60218E828F831242587003A3E095
:1043830069700B8E828F83A3A3E0650960B9EE2465
:104393001412590480D7E509900377F012163DE90A
:1043A300601AE4900384F090034EE07002A3E0608F
:1043B3000B79C490034E1263FB1226DA7415026C58
:1043C3007774F4120A6874EB1211158A828B83A333
:1043D300A3A3A3A3A3A3A3A3122FD57C00750801B2
:1043E300750900750A00750B00EC780812100E9021
:1043F300038578081212199080F478081211556019
:1044030037900DA2E0C0E08C08EA2508F582EB1294
:104413004696FDD0E0C39D501F75080175090075D0
:104423000A00750B00EC780812100E78081212754A
:10443300900385780812122C0CECC3941B409E90B9
:1044430080F478081212F175830375828578081257
:104453001155604190038578081212F18518828501
:10446300198378081212E274041213487401F07469
:10447300071213487401F090038BE0C0E074051237
:104483001348D0E0F074071213481244BE74069028
:104493000384F08023E4900384F0FCFD7A047B1012
:1044A30012206990034EE07002A3E0600B79C49080
:1044B300034E1263FB1226DA0252F2E4126CAF12BD
:1044C300249B2274F5120A6874D81211158A088B7A
:1044D300098A828B83A3A3A31274AD7415121348A4
:1044E300AC82AD838A828B83A3A3A3A3A3A3A312CA
:1044F3005582126CA612166D7415121348E0706E75
:10450300850882850983A3A3A3A3A3A3A3A3E0C3CD
:10451300940B405A8E828F83A3A3A3A3A3A3A3A325
:10452300E064027049EE240B12469364FF703F90DF
:104533000384E06402603CE064066037900344E077
:104543007002A3E0600512469A6051900384E06410
:10455300086005E0640470167417121348E0F974D8
:104563001C121348AC82AD83126C9E12167374280E
:10457300024DE7900344E07002A3E0701F7508004A
:1045830078081210577808121057EE2410125904A5
:1045930012750B1251621246B91210818E828F83EB
:1045A300126AA5127516A3125A2274021213481224
:1045B3005DDDEE240D124693C0E07404121348D05F
:1045C300E0F0125901A3E05480F9E47001E96004BA
:1045D300D2F08002C2F0A2F0E492E0C0E0740512CF
:1045E3001348D0E0F07419121348E0C0E0740612C7
:1045F3001348D0E0F0741B121348E0C0E0740712B4
:104603001348D0E0F07416121348E0C0E0740912A6
:104613001348D0E0F07417121348E0C0E074081296
:104623001348D0E0F0EE2410124693C0E0740A124F
:104633001348D0E0F0741A121348E0C0E0740B1270
:104643001348D0E0F07427121348E0C0E0740C1252
:104653001348D0E0F0741C121348A982AA83890876
:104663008A09750A00780812104F7C087D007410BF
:10467300121348AA82AB83125CF41210818518824C
:10468300851983AA82AB83121469024571EE24173C
:10469300F582EF1255D222900344124DD5640122C4
:1046A300E508240CF582E509123C24125587A3A3DF
:1046B300A3A3A3126E11123CC512173F74022274F6
:1046C300F6120A6874C9121115900384E064086035
:1046D30062900395E0F824DFF582E4340DF583E07E
:1046E300FA900366F0E824E5F582E4340DF583E0FF
:1046F300FB900364F07508FF7509FFEA780812114F
:10470300F3E508F4FCE509F4FD3395E0FE90038D31
:104713001248697508FF7509FFEBC39A78081211EF
:10472300F3E508F4FCE509F4FD3395E0FE9003910D
:10473300124869E41264227904122483900395E0F9
:104743007009741E12134874018006741E121348F4
:10475300E4F0740F851882851983F0900DA1126A15
:10476300AF79461224837401121348E4F0900E06C5
:10477300E0C0E07402121348D0E0F0900372E0C08E
:10478300E07403121348D0E0F07404121348E4F009
:104793007405121348E4F07407121348E4F090030D
:1047A30095E0C3940F500CE0C0E07406121348D098
:1047B300E080077406121348740FF07C967D03742F
:1047C30008121348AA82AB831222197C037D007955
:1047D300FF7410121348AA82AB8312209F9003CE5A
:1047E300E0C0E07413121348D0E012654374011261
:1047F3001348126532121757900389E0C0E0741C06
:10480300121348D0E0F090038AE0C0E0741D121345
:1048130048D0E0F0900377E0C0E0741A121348D058
:10482300E0F0900382125A227418121348125DDDCD
:104833007420121348E4F090038CE0C0E0741F125C
:104843001348D0E0F07434121348E4F074291213BF
:1048530048E41248747414121348AA82AB831224D6
:10486300A1743702640CECF0A3EDF0A3EEF0A3F017
:1048730022F07A757B03795312487F221224837ABC
:10488300787B03794B12248322C082C0838A828B74
:1048930083A3E06007E4900384F0804A74089003E4
:1048A30084F0900395E0701F90034EE07002A3E044
:1048B300600B790090034E1263FB1226DA90038299
:1048C3001259227A05801A79001214639003751223
:1048D30059227A067B001220699003781259227AB2
:1048E300047B00122069025FF674F4120A6874EA0A
:1048F300121115EAFEEBFFEE24020A0AEF3400FB65
:104903001225FD8A088B09EA7001EB70030249B78F
:104913008A828B83A3A3A3A3E0640160278A828B8B
:1049230083A3A3A3A3E06402601A8A828B83A3A355
:10493300A3A3E06403600D8A828B83A3A3A3A3E0F4
:1049430064047070EE2402FCEF3400FD8518828548
:104953001983126A971249BC121348125DDD740A57
:104963001213487401F07413121348126AAE12241E
:1049730095890AAC0A7D007A077B001220698508B5
:1049830082850983A3A3A3A3A3E0C2E0F0740185F6
:104993000882850983A3A3A3A3A3A3A3A3A3127537
:1049A30028120811E8850882850983A3A3A3A3A37A
:1049B300A3A3A3F074160252F4125A367408227495
:1049C300F2120A6874F8121115EAFEEBFF8C0A8DD5
:1049D3000B890C851882851983AC82AD837583801E
:1049E3007582B27408120FAFF50DEEFCEFFD85185A
:1049F30082851983AA82AB83127C997003750D019A
:104A03009003D0803BEEFCEFFDE508240BFAE509AB
:104A13003400127C98601E850882850983A3A3E075
:104A2300650C7011850882850983E0650A7004A30B
:104A3300E0650B6038E5082414F582E5091259078F
:104A4300125BB8E5087002E5096022E50D70B685D2
:104A53000882850983E0650A7004A3E0650B70D5BD
:104A6300850882850983A3A3E0650C70C8AA08ABF7
:104A7300097408025225C082C0839003D0025FF3F9
:104A830074F7120A689003D0125950800CEA241468
:104A93001274A7122135EEFAEFFBEA7001EB70ED09
:104AA3009003D0E4F0A3F00255AF74F4120A68EA5D
:104AB300FEEBFFEE24131246936403700DEE240BFA
:104AC300FAEF3400FB1225FD800DE06402707BEEEB
:104AD300125A14EF1274F78A088B09E5087002E57D
:104AE3000960678E828F83A3E0700FE48508828557
:104AF3000983A3A3A3A3A3A3804F64F1600A8E82B7
:104B03008F83A3E064E17025850882850983A3A3CD
:104B1300A3A3A3A3E064017014850882850983120B
:104B23004B501226DAEE240BFAEF123FAB850882C4
:104B3300850983A3A3A3A3A3A3E0600E85088285AD
:104B43000983A3A3A3A3A3A314F00252F7123CC5A2
:104B530090035C1263FF2274F1120A688A088B09BE
:104B6300ECFEEDFF890A8A828B83124C318A828B99
:104B730083124C3BF0EEF8EFF9A30EAF838A828BDE
:104B830083A3A3E0C454F0FA88828983E04A124CD9
:104B930047124C3C124C42E0333354FCFA8E828F62
:104BA30083E04A124C42A3E033333354F8FA8E8243
:104BB3008F83E04AF008EFF9A30EAF838508828B59
:104BC30083A3A3A3A3A3A3E0A2E0E492E01313545B
:104BD30080FA88828983E04AF0E5082407F50CEB24
:104BE3003400F50D750E00780C12104F7C08125C22
:104BF300EE121081124D12E508240FF50CE509346D
:104C030000F50D780C12104F7C03125CEE1210812C
:104C1300E50AC3940F400C124C2812590712425351
:104C2300A3A3F0802DE5082412F582E50922124C96
:104C33003CF0A3AE82AF8322A3E08E828F83221245
:104C43004C47A322F08508828B83A3A3A322AA083F
:104C5300AB097F07020D5E74F1120A68EAFEEBFFEF
:104C6300890A8C088D098E828F83E08C828D831252
:104C730052D4AE82AF83E0125FA6124D34C4125FEA
:104C8300A6124D27E054038C828D83124D32A2E28B
:104C9300E492E08C828D83124D31131313541F124F
:104CA3005FA6124D30A2E7E492E08C828D83A3A32A
:104CB300A3A3124D278E0C8F0D750E00780C1210C6
:104CC3004F7C087D00E5082407124D1B121081124A
:104CD3004D128E0C8F0D780C12104F7C037D00E566
:104CE30008240F124D1B121081E50AC3940F4014C0
:104CF3008E828F83A3A3A3E0C0E0124C281259072E
:104D0300D0E08007124C28125907E4F0024C55EE0C
:104D13002408FEEF3400FF22FAE5093400FB1220D9
:104D230093740322A3A31252D80EAF8322A3A3A387
:104D3300A3A3F08E828F83E02274F0120A6874F9C1
:104D4300121115EAFEEBFF8908900344E07002A3F9
:104D5300E06010124DCE64027009EEFAEFFB1217F9
:104D6300F38063900382E06E7003A3E06F70577467
:104D730001650860097A967B03127C9970487A0072
:104D83007B021252E87001EB703C900385780C12A1
:104D930012F1851882851983780C1212E290038B25
:104DA300E0C0E07404121348D0E0F0740512134815
:104DB3007401F074061213487402126AAF121403DA
:104DC300E960971214097407026C77900344124D3B
:104DD300D5221267C3A3A3A3E0229003821259260C
:104DE300900378221210817F03020D5EE0F9025FC7
:104DF300F6EAF0A3EBF0025FF674F6120A6890038A
:104E0300E2E0701F7C0079017A007B001216A9EAA8
:104E13007001EB600E8A828B83E07002A3E0600373
:104E23001215DD02640FC082C0831252C54010798F
:104E3300FF1216A3E9FA902BD6E493C39A50047990
:104E43000180027900025FF674F0120A688A088B07
:104E530009890B750C008A828B83A3A3A3A3A3A345
:104E6300A3A3E0F91216AF8A0E8B0FAE0EAF0F7528
:104E73000A01EE7001EF6003024F2685088285095F
:104E830083A3A3A3A3A3A31259228508828509831D
:104E9300A3A3A3A3A3A3A3125DC9126CAB1216977A
:104EA3008A0C8B0DAE0CAF0DEE7001EF7003025048
:104EB300658E828F83A3A3A3A3E4F0A3F0E5082464
:104EC3000B125071E0C0E0125901D0E0F01217B795
:104ED300EE240C126C86E508240EF582E509125ABD
:104EE3001FEE240E125DD7750C01EE2406F8EF12A7
:104EF300506D547FF0A3E054FC1277A35404600375
:104F0300024FAC900DFF125DBD740778081211F3C8
:104F13008E828F83A3A3A3A3A3A3E04508F0A3E0FA
:104F23004509F08E828F83A3A3A3A3A3A3E0548098
:104F3300F508A3E05403F509740778081212D3E5C2
:104F43000B607974028E828F83A3A3A3A3124D30C7
:104F5300240D12344FA2E2500B9003701266D3A3B8
:104F6300A3125DDDE5087003025033EE2406F8EF6B
:104F73003400F9E8FAE9FB8A828B83E0547FFCA3CF
:104F8300E054FCFD74FF2508F50874FF3400F509AF
:104F9300740778081211F3E5084CF8E5094DF98A0E
:104FA300828B83125DDD0250338E828F83A3A3A392
:104FB300A3A3A3E04480F0A3E0024F25E508700516
:104FC300750A00806B8E828F83A3A3A3A3A3A3E0A0
:104FD300542060171220AB8A08747F5508F8745F59
:104FE300288E828F83A3A3A3A380278E828F83A37C
:104FF300A3A3A3A3A3E05410600E1220AB8A0874EA
:105003000F5508F8740A80D88E828F83A3A3A3A3B5
:105013007401F0A3E4F074048E828F83A3A3A3A38B
:10502300A3A3A3A3A31252DF7001EB70031263D6F1
:105033007401650C702F8E828F83A3A3A3A3126CBC
:10504300BBF9EEFAEFFB12169DE96019EE240C1280
:1050530046937002A3E0600312507CEEFAEFFB125A
:105063002135750A00A90A026C7A1267AB22FAE5A8
:10507300093400FB8A828B8322EE240C123C21121A
:10508300508622E0FAA3E0FB1221352274F4120ABF
:105093006874F71211157E001216AFEA7001EB70F7
:1050A3000302515B8A828B83A3A3A3A3A3A3A3A31A
:1050B300A3E06406600302515B8A828B83A3A3A3EC
:1050C300A3A3A3A3E0FF8A828B83125BC0E0C0E0AB
:1050D3007408121348D0E012559E126A0C125DDD5B
:1050E3001216CD74085FF9E47001E96069851882CE
:1050F3008519831259227A007B00121691EA7001F6
:10510300EB70539003821257111224BF7C007D0071
:105113007A007B00802A8E828F8312559A64FF70F7
:1051230004A3E064FF602F900382125162126CAB00
:10513300121CCDE9641A601E7C007D00EEFAEFFBC1
:105143001216918A0A8B0BAE0AAF0BEE7001EF7049
:10515300C579001224C57E01EEF974090252F412D6
:105163005166221259268E828F832274F7120A689F
:10517300EA7001EB70059003E380068A828B83A3B8
:10518300A31253AA7001EB602C8A828B83A3A3A37F
:10519300A3A3A3A3E05408F9E47001E960DDEC7074
:1051A30001ED60158A828B8312559A6C7003A3E01C
:1051B3006D70C880047A007B000255AF74F2120A46
:1051C30068EAFEEBFF890A8C088D097A107B0012CE
:1051D300212FEA7001EB603CE48A828B83A3A3A3B3
:1051E300A3A3A3A3A3125219E50A1274D5127083C1
:1051F3008A828B83A3A3A3A3E4F0125219A3A3F07F
:1052030012732CEA240CF582EB1259111274D4A3F5
:10521300A3F0A3F0800F1274B9A3A3A3A322A90A36
:1052230074031210817F06020D5E74F4120A68EA99
:10523300FEEBFF89088C0A8D0BEE7001EF605D7445
:10524300016508701479011216A3E9FA902BD9E4C9
:1052530093C39A500F7911806774046508703712ED
:1052630052C540F18E828F83A3A3A3A3A3A3A3A3B9
:10527300A3E5081252D4A3A3A3E50AF0A3E50B12F6
:1052830052D4A3E4F0A3F09003E3E07002A3E09010
:1052930003E3601B800A7402650860C879C180203B
:1052A300126E047002A3E088828983A3A370F1EED7
:1052B300F0A3EF1252DF7001EB70031263D6790093
:1052C300803279041216A3E9FA902BD8E493C39A97
:1052D300221252D822F08E828F83A322F01252E43C
:1052E300227A207B009003CFE0F91221F5EA2274A1
:1052F300151210817F04020D5EC082C083E9FC7920
:10530300009003E3801D8A828B83A3A3A3A3A3A39B
:10531300A3A3A3E06C600574FF6C7001098A828B00
:1053230083A3A31253AA7001EB70DB025FF674F739
:10533300120A68EA7001EB70059003E380068A8223
:105343008B83A3A31253AA7001EB60248A828B83FD
:10535300A3A3A3A3A3A3A3A3A3E06970E1EC601495
:105363008A828B83E0240D127124A2E240D0800450
:105373007A007B000255AFC082C0839003E38006AE
:105383008A828B83A3A31253AA7001EB60128A82D1
:105393008B83A3A3A3A3A3A3A3A3E06970E28004C5
:1053A3007A007B00025FF6123CC5EA22C082C0830A
:1053B3009003E3800688828983A3A3127327700175
:1053C300E9601B88828983E0FCA3E0F5838C82E09B
:1053D3006A7003A3E06B70DDE8FAE9FB80047A00EE
:1053E3007B00025FF674F1120A688A0A8B0B8C0C3D
:1053F3008D0D750800750900EA7001EB60319003AB
:10540300E380068E828F83A3A31254357001EF606D
:105413001EAC0CAD0DEEFAEFFB850A82850B8312F1
:1054230026DAE9640170DCEEF8EFF98808890902ED
:105433004C51E0FEA3E0FFEE22790002103374F733
:10544300120A689003E3125A227C007D00800DE863
:10545300FCE9FD88828983A3A3125A22E87001E93B
:105463006030EA687002EB6970E59003E3126CAB9D
:10547300E86A7002E96B88828983A3A37008125AD1
:10548300229003E38009125A228C828D83A3A312F4
:105493005DDD0255AF74F7120A68EAFEEBFFEE70AA
:1054A30001EF60161216C71255B47002A3E0600331
:1054B30012507CEEFAEFFB1221350255AF74F7124E
:1054C3000A688A828B8312559AFCA3E0FD9003E35A
:1054D300125A227508007E00803388828983A3A331
:1054E300A3A3A3A3A3A3A3E0640570180E888289D2
:1054F30083E0FFA3E0F5838F82E06C7003A3E06D8C
:105503007002050888828983A3A3125A22E87001D6
:10551300E970C7902BC9E493FCE508C39C500B903A
:105523002BDBE493FCEEC39C400F8A828B83A3A303
:10553300A3A37401F0A3E4800C900370E0F8125568
:1055430082E8F0A3E9F074058A828B83A3A3A3A363
:10555300A3A31274B3A3A3E0F0A3E0440812559EDF
:1055630064FF7004A3E064FF600E900382126E0A6E
:105573001224B9E9641A700579011224C5802DA398
:1055830012558722E0F98A828B83A3A3A3A3222443
:105593001DF582EB123C241255A5221274D9125523
:1055A300A522126403E022741F1210817F01020DF1
:1055B3005E8E828F83E0241C1234531250878E82B6
:1055C3008F83125086EE240C1255CF22F582EF34CE
:1055D30000F583E022C082C083EAFCEBFDEC70019E
:1055E300ED700479058049EC24FBF582ED34FFF579
:1055F30083E07002A3E07008125636E064FF600592
:105603001220B780DE9003CFE0C0E0125636D0E020
:10561300F0902BCCE493F97AE57B031220E7E9645D
:1056230001700B7A007B201263DA7900800279041F
:10563300025FF6EC24FFF582ED34FFF5832274F468
:10564300120A68A2AFE492E0F508C2AF9003E51234
:1056530054357001EF603DEE24FBF582EF34FFF526
:1056630083E07002A3E07A007B209003CF600512F1
:1056730063DD8005E0F91220F3750A00750B0078ED
:105683000A121053EEFCEFFD7AE57B031220E1745E
:1056930002121081E508A2E092AFEEFAEFFB02528C
:1056A300F774F7120A6874E1121115EA2413F582EC
:1056B300EB124696C0E07411121348D0E0125A2D33
:1056C3007409121348125A26125708FCE9FD8C82FA
:1056D3008D83125A22740B121348125A262414F57E
:1056E30082EB124696C0E07412121348D0E0F0EA3F
:1056F300240EF582EB123BA88C828D831257111274
:1057030015710255AA2404F8EB3400F9E822125962
:1057130026851882851983AA82AB832274F4120A20
:105723006874FC121115EAFEEBFF12167FE960059F
:1057330079110258FC8E828F8312594160031259EA
:105743000BEE24131246937010902BD5E493C0E014
:10575300EE2413125904D0E0F08E828F83E0A2E787
:1057630050045403801CEE241412469370159003C6
:1057730061E0C0E0EE2414125904D0E0F09003611C
:10578300E004F0EE241112469364017019900D7831
:10579300E0600D90036CE0700D8E828F83E07006E5
:1057A300EE241112590E90036FE0A2E150478E824E
:1057B3008F83125941603E8E828F83E06008EE240E
:1057C3000B1231B5602FEE240F124693544060182C
:1057D300EE24131246936401700EEE240F124693C7
:1057E30054FBF0A3E0F0800DEEFAEFFB1216E5E9AF
:1057F30070030257338E828F83E064017018EE12B8
:105803005A14EF1255976402700CEE240F1246934C
:105813004440F0A3E0F0EE240F1246935440704F3F
:1058230090036FE0A2E15047750800780812105703
:10583300EE2406FCEF3400FD8E828F83126CA9EEFA
:105843002412123BA51215AD7401121081E96007F1
:1058530012590B12592CF079008E828F83A3A3A3C4
:10586300A3125162A3A3123BD8600412592CF085F2
:105873001882851983AC82AD83EEFAEFFB1216FD15
:105883008A088B098E828F83A3A3125922EA70019F
:10589300EB60628E828F83E0C0E07401121348D004
:1058A300E0F0740212134812733074011213488526
:1058B300820A85830B780A121053EE240F125904BF
:1058C300120E1DEE240E124693F50A780A12105793
:1058D300900375120E1D7407121348E0F91216F7A0
:1058E3007407121081E9FE74106E700BAA08AB09DD
:1058F30012213580027E10EEF974040252F4EE2474
:105903000BF582EF123C2422EE2412F582EF123CB7
:1059130024E4F022A908EE2412F582EF123C2412AB
:10592300592622E0FCA3E0FD22123C1EE04420F0B5
:10593300A3E0228E828F83A3A3A3A3A3A3A3A3A3E2
:1059430012594722125950FB1217ABE922E0FAA36E
:10595300E022C082C08374DE1211158A828B83A376
:10596300A3A3A3125A22740E121348E8F0A3E91258
:105973005A2D740C121348125A26240DF582EB1279
:105983004696C0E0741A121348D0E0F0125A13EB93
:10599300125A1F7420121348125A262415F582EB4B
:1059A300124696C0E07408121348D0E0F0EA241CB3
:1059B300F582EB125A1F7412121348125A2624113D
:1059C300F582EB124696C0E07409121348D0E0F05A
:1059D30074FF851882851983F0740112134874FFCC
:1059E300F0740212134874FFF09080F4120E1974CD
:1059F30004121348AC82AD837407121348AA82AB16
:105A030083121451740412108179007422022E94AB
:105A1300EA240BF58222EE240BF582EF123C2412CA
:105A23005A3622E8F0A3E9F0EA221274D9A3A312AA
:105A33005A3622125A3A22E0F8A3E0F92274EA1203
:105A43000A6874EE1211158A148B15ECFEEDFF89AA
:105A53000E7428121348127072742A121348E0F558
:105A63000F742B121348125BB8742D121348E0F510
:105A730012A3E0F513750A107A1E7B0012212F740E
:105A830002121348126C8D7402121348E07002A3C1
:105A9300E07003025BB1750B00EEFAEFFB12260315
:105AA3008A108B11A810A911E87001E96026888279
:105AB3008983A3A3A3A3E06401600D88828983A3E0
:105AC300A3A3A3E06403700CE508544070067404B8
:105AD3004509F50974045509F9E47001E960037592
:105AE3000B01851882851983AA82AB8379501261D1
:105AF30094126CAB7402121348125BC0A3126C8D28
:105B03007410121348127A9D7402121348E0240B86
:105B1300122FE27402F0121348125BC07402F012E7
:105B230013481263FB1273307402121348E0241BF0
:105B3300122FE2E50EF07402121348E0240C122F28
